{
  "_format": "hh-sol-artifact-1",
  "contractName": "BaseErc20",
  "sourceName": "contracts/BaseErc20.sol",
  "abi": [
    {
      "inputs": [
        {
          "internalType": "string",
          "name": "_name",
          "type": "string"
        },
        {
          "internalType": "string",
          "name": "_symbol",
          "type": "string"
        },
        {
          "internalType": "uint256",
          "name": "_supply",
          "type": "uint256"
        }
      ],
      "stateMutability": "nonpayable",
      "type": "constructor"
    },
    {
      "anonymous": false,
      "inputs": [
        {
          "indexed": true,
          "internalType": "address",
          "name": "owner",
          "type": "address"
        },
        {
          "indexed": true,
          "internalType": "address",
          "name": "spender",
          "type": "address"
        },
        {
          "indexed": false,
          "internalType": "uint256",
          "name": "value",
          "type": "uint256"
        }
      ],
      "name": "Approval",
      "type": "event"
    },
    {
      "anonymous": false,
      "inputs": [
        {
          "indexed": true,
          "internalType": "address",
          "name": "",
          "type": "address"
        },
        {
          "indexed": true,
          "internalType": "uint256",
          "name": "",
          "type": "uint256"
        }
      ],
      "name": "DividendClaimed",
      "type": "event"
    },
    {
      "anonymous": false,
      "inputs": [
        {
          "indexed": true,
          "internalType": "address",
          "name": "previousOwner",
          "type": "address"
        },
        {
          "indexed": true,
          "internalType": "address",
          "name": "newOwner",
          "type": "address"
        }
      ],
      "name": "OwnershipTransferred",
      "type": "event"
    },
    {
      "anonymous": false,
      "inputs": [
        {
          "indexed": true,
          "internalType": "uint256",
          "name": "",
          "type": "uint256"
        }
      ],
      "name": "TotalSharesIncreased",
      "type": "event"
    },
    {
      "anonymous": false,
      "inputs": [
        {
          "indexed": true,
          "internalType": "uint256",
          "name": "",
          "type": "uint256"
        }
      ],
      "name": "TotalSharesReduced",
      "type": "event"
    },
    {
      "anonymous": false,
      "inputs": [
        {
          "indexed": true,
          "internalType": "address",
          "name": "from",
          "type": "address"
        },
        {
          "indexed": true,
          "internalType": "address",
          "name": "to",
          "type": "address"
        },
        {
          "indexed": false,
          "internalType": "uint256",
          "name": "value",
          "type": "uint256"
        }
      ],
      "name": "Transfer",
      "type": "event"
    },
    {
      "inputs": [
        {
          "internalType": "uint256",
          "name": "_quantity",
          "type": "uint256"
        }
      ],
      "name": "addShares",
      "outputs": [],
      "stateMutability": "nonpayable",
      "type": "function"
    },
    {
      "inputs": [
        {
          "internalType": "address",
          "name": "owner",
          "type": "address"
        },
        {
          "internalType": "address",
          "name": "spender",
          "type": "address"
        }
      ],
      "name": "allowance",
      "outputs": [
        {
          "internalType": "uint256",
          "name": "",
          "type": "uint256"
        }
      ],
      "stateMutability": "view",
      "type": "function"
    },
    {
      "inputs": [
        {
          "internalType": "address",
          "name": "spender",
          "type": "address"
        },
        {
          "internalType": "uint256",
          "name": "amount",
          "type": "uint256"
        }
      ],
      "name": "approve",
      "outputs": [
        {
          "internalType": "bool",
          "name": "",
          "type": "bool"
        }
      ],
      "stateMutability": "nonpayable",
      "type": "function"
    },
    {
      "inputs": [
        {
          "internalType": "address",
          "name": "account",
          "type": "address"
        }
      ],
      "name": "balanceOf",
      "outputs": [
        {
          "internalType": "uint256",
          "name": "",
          "type": "uint256"
        }
      ],
      "stateMutability": "view",
      "type": "function"
    },
    {
      "inputs": [],
      "name": "claimDividend",
      "outputs": [],
      "stateMutability": "nonpayable",
      "type": "function"
    },
    {
      "inputs": [],
      "name": "decimals",
      "outputs": [
        {
          "internalType": "uint8",
          "name": "",
          "type": "uint8"
        }
      ],
      "stateMutability": "view",
      "type": "function"
    },
    {
      "inputs": [
        {
          "internalType": "address",
          "name": "spender",
          "type": "address"
        },
        {
          "internalType": "uint256",
          "name": "subtractedValue",
          "type": "uint256"
        }
      ],
      "name": "decreaseAllowance",
      "outputs": [
        {
          "internalType": "bool",
          "name": "",
          "type": "bool"
        }
      ],
      "stateMutability": "nonpayable",
      "type": "function"
    },
    {
      "inputs": [],
      "name": "depositDividends",
      "outputs": [],
      "stateMutability": "payable",
      "type": "function"
    },
    {
      "inputs": [
        {
          "internalType": "address",
          "name": "account",
          "type": "address"
        }
      ],
      "name": "dividendBalanceOf",
      "outputs": [
        {
          "internalType": "uint256",
          "name": "",
          "type": "uint256"
        }
      ],
      "stateMutability": "view",
      "type": "function"
    },
    {
      "inputs": [
        {
          "internalType": "address",
          "name": "spender",
          "type": "address"
        },
        {
          "internalType": "uint256",
          "name": "addedValue",
          "type": "uint256"
        }
      ],
      "name": "increaseAllowance",
      "outputs": [
        {
          "internalType": "bool",
          "name": "",
          "type": "bool"
        }
      ],
      "stateMutability": "nonpayable",
      "type": "function"
    },
    {
      "inputs": [],
      "name": "name",
      "outputs": [
        {
          "internalType": "string",
          "name": "",
          "type": "string"
        }
      ],
      "stateMutability": "view",
      "type": "function"
    },
    {
      "inputs": [],
      "name": "owner",
      "outputs": [
        {
          "internalType": "address",
          "name": "",
          "type": "address"
        }
      ],
      "stateMutability": "view",
      "type": "function"
    },
    {
      "inputs": [
        {
          "internalType": "uint256",
          "name": "_quantity",
          "type": "uint256"
        }
      ],
      "name": "reduceShares",
      "outputs": [],
      "stateMutability": "nonpayable",
      "type": "function"
    },
    {
      "inputs": [],
      "name": "renounceOwnership",
      "outputs": [],
      "stateMutability": "nonpayable",
      "type": "function"
    },
    {
      "inputs": [],
      "name": "symbol",
      "outputs": [
        {
          "internalType": "string",
          "name": "",
          "type": "string"
        }
      ],
      "stateMutability": "view",
      "type": "function"
    },
    {
      "inputs": [],
      "name": "totalDividends",
      "outputs": [
        {
          "internalType": "uint256",
          "name": "",
          "type": "uint256"
        }
      ],
      "stateMutability": "view",
      "type": "function"
    },
    {
      "inputs": [],
      "name": "totalSupply",
      "outputs": [
        {
          "internalType": "uint256",
          "name": "",
          "type": "uint256"
        }
      ],
      "stateMutability": "view",
      "type": "function"
    },
    {
      "inputs": [
        {
          "internalType": "address",
          "name": "recipient",
          "type": "address"
        },
        {
          "internalType": "uint256",
          "name": "amount",
          "type": "uint256"
        }
      ],
      "name": "transfer",
      "outputs": [
        {
          "internalType": "bool",
          "name": "",
          "type": "bool"
        }
      ],
      "stateMutability": "nonpayable",
      "type": "function"
    },
    {
      "inputs": [
        {
          "internalType": "address",
          "name": "sender",
          "type": "address"
        },
        {
          "internalType": "address",
          "name": "recipient",
          "type": "address"
        },
        {
          "internalType": "uint256",
          "name": "amount",
          "type": "uint256"
        }
      ],
      "name": "transferFrom",
      "outputs": [
        {
          "internalType": "bool",
          "name": "",
          "type": "bool"
        }
      ],
      "stateMutability": "nonpayable",
      "type": "function"
    },
    {
      "inputs": [
        {
          "internalType": "address",
          "name": "newOwner",
          "type": "address"
        }
      ],
      "name": "transferOwnership",
      "outputs": [],
      "stateMutability": "nonpayable",
      "type": "function"
    },
    {
      "stateMutability": "payable",
      "type": "receive"
    }
  ],
  "bytecode": "0x60806040523480156200001157600080fd5b5060405162002d8238038062002d82833981810160405281019062000037919062000432565b8282816003908051906020019062000051929190620002f9565b5080600490805190602001906200006a929190620002f9565b5050506200008d62000081620000a860201b60201c565b620000b060201b60201c565b6200009f33826200017660201b60201c565b5050506200078b565b600033905090565b6000600560009054906101000a900473ffffffffffffffffffffffffffffffffffffffff16905081600560006101000a81548173ffffffffffffffffffffffffffffffffffffffff021916908373ffffffffffffffffffffffffffffffffffffffff1602179055508173ffffffffffffffffffffffffffffffffffffffff168173ffffffffffffffffffffffffffffffffffffffff167f8be0079c531659141344cd1fd0a4f28419497f9722a3daafe3b4186f6b6457e060405160405180910390a35050565b600073ffffffffffffffffffffffffffffffffffffffff168273ffffffffffffffffffffffffffffffffffffffff161415620001e9576040517f08c379a0000000000000000000000000000000000000000000000000000000008152600401620001e090620004f2565b60405180910390fd5b620001fd60008383620002ef60201b60201c565b8060026000828254620002119190620005a1565b92505081905550806000808473ffffffffffffffffffffffffffffffffffffffff1673ffffffffffffffffffffffffffffffffffffffff1681526020019081526020016000206000828254620002689190620005a1565b925050819055508173ffffffffffffffffffffffffffffffffffffffff16600073ffffffffffffffffffffffffffffffffffffffff167fddf252ad1be2c89b69c2b068fc378daa952ba7f163c4a11628f55a4df523b3ef83604051620002cf919062000514565b60405180910390a3620002eb60008383620002f460201b60201c565b5050565b505050565b505050565b82805462000307906200063e565b90600052602060002090601f0160209004810192826200032b576000855562000377565b82601f106200034657805160ff191683800117855562000377565b8280016001018555821562000377579182015b828111156200037657825182559160200191906001019062000359565b5b5090506200038691906200038a565b5090565b5b80821115620003a55760008160009055506001016200038b565b5090565b6000620003c0620003ba846200055a565b62000531565b905082815260208101848484011115620003d957600080fd5b620003e684828562000608565b509392505050565b600082601f8301126200040057600080fd5b815162000412848260208601620003a9565b91505092915050565b6000815190506200042c8162000771565b92915050565b6000806000606084860312156200044857600080fd5b600084015167ffffffffffffffff8111156200046357600080fd5b6200047186828701620003ee565b935050602084015167ffffffffffffffff8111156200048f57600080fd5b6200049d86828701620003ee565b9250506040620004b0868287016200041b565b9150509250925092565b6000620004c9601f8362000590565b9150620004d68262000748565b602082019050919050565b620004ec81620005fe565b82525050565b600060208201905081810360008301526200050d81620004ba565b9050919050565b60006020820190506200052b6000830184620004e1565b92915050565b60006200053d62000550565b90506200054b828262000674565b919050565b6000604051905090565b600067ffffffffffffffff82111562000578576200057762000708565b5b620005838262000737565b9050602081019050919050565b600082825260208201905092915050565b6000620005ae82620005fe565b9150620005bb83620005fe565b9250827fffffffffffffffffffffffffffffffffffffffffffffffffffffffffffffffff03821115620005f357620005f2620006aa565b5b828201905092915050565b6000819050919050565b60005b83811015620006285780820151818401526020810190506200060b565b8381111562000638576000848401525b50505050565b600060028204905060018216806200065757607f821691505b602082108114156200066e576200066d620006d9565b5b50919050565b6200067f8262000737565b810181811067ffffffffffffffff82111715620006a157620006a062000708565b5b80604052505050565b7f4e487b7100000000000000000000000000000000000000000000000000000000600052601160045260246000fd5b7f4e487b7100000000000000000000000000000000000000000000000000000000600052602260045260246000fd5b7f4e487b7100000000000000000000000000000000000000000000000000000000600052604160045260246000fd5b6000601f19601f8301169050919050565b7f45524332303a206d696e7420746f20746865207a65726f206164647265737300600082015250565b6200077c81620005fe565b81146200078857600080fd5b50565b6125e7806200079b6000396000f3fe6080604052600436106101235760003560e01c806395d89b41116100a0578063dd62ed3e11610064578063dd62ed3e14610410578063defa92ee1461044d578063e083d4c814610457578063f0fc6bca14610494578063f2fde38b146104ab57610132565b806395d89b411461031757806399651db814610342578063997664d71461036b578063a457c2d714610396578063a9059cbb146103d357610132565b806339509351116100e7578063395093511461023257806370a082311461026f578063715018a6146102ac5780638da5cb5b146102c35780639428706b146102ee57610132565b806306fdde0314610137578063095ea7b31461016257806318160ddd1461019f57806323b872dd146101ca578063313ce5671461020757610132565b36610132576101306104d4565b005b600080fd5b34801561014357600080fd5b5061014c61056b565b6040516101599190611cab565b60405180910390f35b34801561016e57600080fd5b5061018960048036038101906101849190611956565b6105fd565b6040516101969190611c90565b60405180910390f35b3480156101ab57600080fd5b506101b461061b565b6040516101c19190611ead565b60405180910390f35b3480156101d657600080fd5b506101f160048036038101906101ec9190611907565b610625565b6040516101fe9190611c90565b60405180910390f35b34801561021357600080fd5b5061021c61071d565b6040516102299190611ec8565b60405180910390f35b34801561023e57600080fd5b5061025960048036038101906102549190611956565b610726565b6040516102669190611c90565b60405180910390f35b34801561027b57600080fd5b50610296600480360381019061029191906118a2565b6107d2565b6040516102a39190611ead565b60405180910390f35b3480156102b857600080fd5b506102c161081a565b005b3480156102cf57600080fd5b506102d86108a2565b6040516102e59190611c75565b60405180910390f35b3480156102fa57600080fd5b5061031560048036038101906103109190611992565b6108cc565b005b34801561032357600080fd5b5061032c610982565b6040516103399190611cab565b60405180910390f35b34801561034e57600080fd5b5061036960048036038101906103649190611992565b610a14565b005b34801561037757600080fd5b50610380610aca565b60405161038d9190611ead565b60405180910390f35b3480156103a257600080fd5b506103bd60048036038101906103b89190611956565b610ad0565b6040516103ca9190611c90565b60405180910390f35b3480156103df57600080fd5b506103fa60048036038101906103f59190611956565b610bbb565b6040516104079190611c90565b60405180910390f35b34801561041c57600080fd5b50610437600480360381019061043291906118cb565b610bd9565b6040516104449190611ead565b60405180910390f35b6104556104d4565b005b34801561046357600080fd5b5061047e600480360381019061047991906118a2565b610c60565b60405161048b9190611ead565b60405180910390f35b3480156104a057600080fd5b506104a9610ce6565b005b3480156104b757600080fd5b506104d260048036038101906104cd91906118a2565b610e70565b005b6104dc610f68565b73ffffffffffffffffffffffffffffffffffffffff166104fa6108a2565b73ffffffffffffffffffffffffffffffffffffffff1614610550576040517f08c379a000000000000000000000000000000000000000000000000000000000815260040161054790611dcd565b60405180910390fd5b34600660008282546105629190611f0a565b92505081905550565b60606003805461057a906120a7565b80601f01602080910402602001604051908101604052809291908181526020018280546105a6906120a7565b80156105f35780601f106105c8576101008083540402835291602001916105f3565b820191906000526020600020905b8154815290600101906020018083116105d657829003601f168201915b5050505050905090565b600061061161060a610f68565b8484610f70565b6001905092915050565b6000600254905090565b600061063284848461113b565b6000600160008673ffffffffffffffffffffffffffffffffffffffff1673ffffffffffffffffffffffffffffffffffffffff168152602001908152602001600020600061067d610f68565b73ffffffffffffffffffffffffffffffffffffffff1673ffffffffffffffffffffffffffffffffffffffff168152602001908152602001600020549050828110156106fd576040517f08c379a00000000000000000000000000000000000000000000000000000000081526004016106f490611dad565b60405180910390fd5b61071185610709610f68565b858403610f70565b60019150509392505050565b60006012905090565b60006107c8610733610f68565b848460016000610741610f68565b73ffffffffffffffffffffffffffffffffffffffff1673ffffffffffffffffffffffffffffffffffffffff16815260200190815260200160002060008873ffffffffffffffffffffffffffffffffffffffff1673ffffffffffffffffffffffffffffffffffffffff168152602001908152602001600020546107c39190611f0a565b610f70565b6001905092915050565b60008060008373ffffffffffffffffffffffffffffffffffffffff1673ffffffffffffffffffffffffffffffffffffffff168152602001908152602001600020549050919050565b610822610f68565b73ffffffffffffffffffffffffffffffffffffffff166108406108a2565b73ffffffffffffffffffffffffffffffffffffffff1614610896576040517f08c379a000000000000000000000000000000000000000000000000000000000815260040161088d90611dcd565b60405180910390fd5b6108a060006111f0565b565b6000600560009054906101000a900473ffffffffffffffffffffffffffffffffffffffff16905090565b6108d4610f68565b73ffffffffffffffffffffffffffffffffffffffff166108f26108a2565b73ffffffffffffffffffffffffffffffffffffffff1614610948576040517f08c379a000000000000000000000000000000000000000000000000000000000815260040161093f90611dcd565b60405180910390fd5b61095233826112b6565b807f72470486306bc4162b554ff891a323b255f386ecb3ad25a29769a9b79f6787e960405160405180910390a250565b606060048054610991906120a7565b80601f01602080910402602001604051908101604052809291908181526020018280546109bd906120a7565b8015610a0a5780601f106109df57610100808354040283529160200191610a0a565b820191906000526020600020905b8154815290600101906020018083116109ed57829003601f168201915b5050505050905090565b610a1c610f68565b73ffffffffffffffffffffffffffffffffffffffff16610a3a6108a2565b73ffffffffffffffffffffffffffffffffffffffff1614610a90576040517f08c379a0000000000000000000000000000000000000000000000000000000008152600401610a8790611dcd565b60405180910390fd5b610a9a338261148d565b807f302cb9b5dee94536cd0608c23994d43d2b7c6f1e7a12c17f22b5adc84139424560405160405180910390a250565b60065481565b60008060016000610adf610f68565b73ffffffffffffffffffffffffffffffffffffffff1673ffffffffffffffffffffffffffffffffffffffff16815260200190815260200160002060008573ffffffffffffffffffffffffffffffffffffffff1673ffffffffffffffffffffffffffffffffffffffff16815260200190815260200160002054905082811015610b9c576040517f08c379a0000000000000000000000000000000000000000000000000000000008152600401610b9390611e6d565b60405180910390fd5b610bb0610ba7610f68565b85858403610f70565b600191505092915050565b6000610bcf610bc8610f68565b848461113b565b6001905092915050565b6000600160008473ffffffffffffffffffffffffffffffffffffffff1673ffffffffffffffffffffffffffffffffffffffff16815260200190815260200160002060008373ffffffffffffffffffffffffffffffffffffffff1673ffffffffffffffffffffffffffffffffffffffff16815260200190815260200160002054905092915050565b600080600760008473ffffffffffffffffffffffffffffffffffffffff1673ffffffffffffffffffffffffffffffffffffffff16815260200190815260200160002054600654610cb09190611feb565b9050600081610cbe856107d2565b610cc89190611f91565b9050610cd261061b565b81610cdd9190611f60565b92505050919050565b6000610cf133610c60565b905060008111610d36576040517f08c379a0000000000000000000000000000000000000000000000000000000008152600401610d2d90611d6d565b60405180910390fd5b600654600760003373ffffffffffffffffffffffffffffffffffffffff1673ffffffffffffffffffffffffffffffffffffffff1681526020019081526020016000208190555060003373ffffffffffffffffffffffffffffffffffffffff1682604051610da290611c60565b60006040518083038185875af1925050503d8060008114610ddf576040519150601f19603f3d011682016040523d82523d6000602084013e610de4565b606091505b5050905080610e28576040517f08c379a0000000000000000000000000000000000000000000000000000000008152600401610e1f90611d8d565b60405180910390fd5b813373ffffffffffffffffffffffffffffffffffffffff167f5efa67896a23b651b741b525caacba039c00ca7853be3de8eb1f4269e8669c5660405160405180910390a35050565b610e78610f68565b73ffffffffffffffffffffffffffffffffffffffff16610e966108a2565b73ffffffffffffffffffffffffffffffffffffffff1614610eec576040517f08c379a0000000000000000000000000000000000000000000000000000000008152600401610ee390611dcd565b60405180910390fd5b600073ffffffffffffffffffffffffffffffffffffffff168173ffffffffffffffffffffffffffffffffffffffff161415610f5c576040517f08c379a0000000000000000000000000000000000000000000000000000000008152600401610f5390611d0d565b60405180910390fd5b610f65816111f0565b50565b600033905090565b600073ffffffffffffffffffffffffffffffffffffffff168373ffffffffffffffffffffffffffffffffffffffff161415610fe0576040517f08c379a0000000000000000000000000000000000000000000000000000000008152600401610fd790611e4d565b60405180910390fd5b600073ffffffffffffffffffffffffffffffffffffffff168273ffffffffffffffffffffffffffffffffffffffff161415611050576040517f08c379a000000000000000000000000000000000000000000000000000000000815260040161104790611d2d565b60405180910390fd5b80600160008573ffffffffffffffffffffffffffffffffffffffff1673ffffffffffffffffffffffffffffffffffffffff16815260200190815260200160002060008473ffffffffffffffffffffffffffffffffffffffff1673ffffffffffffffffffffffffffffffffffffffff168152602001908152602001600020819055508173ffffffffffffffffffffffffffffffffffffffff168373ffffffffffffffffffffffffffffffffffffffff167f8c5be1e5ebec7d5bd14f71427d1e84f3dd0314c0f7b2291e5b200ac8c7c3b9258360405161112e9190611ead565b60405180910390a3505050565b600061114684610c60565b14801561115b5750600061115983610c60565b145b61119a576040517f08c379a000000000000000000000000000000000000000000000000000000000815260040161119190611ded565b60405180910390fd5b6111a58383836115ed565b600654600760008473ffffffffffffffffffffffffffffffffffffffff1673ffffffffffffffffffffffffffffffffffffffff16815260200190815260200160002081905550505050565b6000600560009054906101000a900473ffffffffffffffffffffffffffffffffffffffff16905081600560006101000a81548173ffffffffffffffffffffffffffffffffffffffff021916908373ffffffffffffffffffffffffffffffffffffffff1602179055508173ffffffffffffffffffffffffffffffffffffffff168173ffffffffffffffffffffffffffffffffffffffff167f8be0079c531659141344cd1fd0a4f28419497f9722a3daafe3b4186f6b6457e060405160405180910390a35050565b600073ffffffffffffffffffffffffffffffffffffffff168273ffffffffffffffffffffffffffffffffffffffff161415611326576040517f08c379a000000000000000000000000000000000000000000000000000000000815260040161131d90611e0d565b60405180910390fd5b6113328260008361186e565b60008060008473ffffffffffffffffffffffffffffffffffffffff1673ffffffffffffffffffffffffffffffffffffffff168152602001908152602001600020549050818110156113b8576040517f08c379a00000000000000000000000000000000000000000000000000000000081526004016113af90611ced565b60405180910390fd5b8181036000808573ffffffffffffffffffffffffffffffffffffffff1673ffffffffffffffffffffffffffffffffffffffff16815260200190815260200160002081905550816002600082825461140f9190611feb565b92505081905550600073ffffffffffffffffffffffffffffffffffffffff168373ffffffffffffffffffffffffffffffffffffffff167fddf252ad1be2c89b69c2b068fc378daa952ba7f163c4a11628f55a4df523b3ef846040516114749190611ead565b60405180910390a361148883600084611873565b505050565b600073ffffffffffffffffffffffffffffffffffffffff168273ffffffffffffffffffffffffffffffffffffffff1614156114fd576040517f08c379a00000000000000000000000000000000000000000000000000000000081526004016114f490611e8d565b60405180910390fd5b6115096000838361186e565b806002600082825461151b9190611f0a565b92505081905550806000808473ffffffffffffffffffffffffffffffffffffffff1673ffffffffffffffffffffffffffffffffffffffff16815260200190815260200160002060008282546115709190611f0a565b925050819055508173ffffffffffffffffffffffffffffffffffffffff16600073ffffffffffffffffffffffffffffffffffffffff167fddf252ad1be2c89b69c2b068fc378daa952ba7f163c4a11628f55a4df523b3ef836040516115d59190611ead565b60405180910390a36115e960008383611873565b5050565b600073ffffffffffffffffffffffffffffffffffffffff168373ffffffffffffffffffffffffffffffffffffffff16141561165d576040517f08c379a000000000000000000000000000000000000000000000000000000000815260040161165490611e2d565b60405180910390fd5b600073ffffffffffffffffffffffffffffffffffffffff168273ffffffffffffffffffffffffffffffffffffffff1614156116cd576040517f08c379a00000000000000000000000000000000000000000000000000000000081526004016116c490611ccd565b60405180910390fd5b6116d883838361186e565b60008060008573ffffffffffffffffffffffffffffffffffffffff1673ffffffffffffffffffffffffffffffffffffffff1681526020019081526020016000205490508181101561175e576040517f08c379a000000000000000000000000000000000000000000000000000000000815260040161175590611d4d565b60405180910390fd5b8181036000808673ffffffffffffffffffffffffffffffffffffffff1673ffffffffffffffffffffffffffffffffffffffff16815260200190815260200160002081905550816000808573ffffffffffffffffffffffffffffffffffffffff1673ffffffffffffffffffffffffffffffffffffffff16815260200190815260200160002060008282546117f19190611f0a565b925050819055508273ffffffffffffffffffffffffffffffffffffffff168473ffffffffffffffffffffffffffffffffffffffff167fddf252ad1be2c89b69c2b068fc378daa952ba7f163c4a11628f55a4df523b3ef846040516118559190611ead565b60405180910390a3611868848484611873565b50505050565b505050565b505050565b60008135905061188781612583565b92915050565b60008135905061189c8161259a565b92915050565b6000602082840312156118b457600080fd5b60006118c284828501611878565b91505092915050565b600080604083850312156118de57600080fd5b60006118ec85828601611878565b92505060206118fd85828601611878565b9150509250929050565b60008060006060848603121561191c57600080fd5b600061192a86828701611878565b935050602061193b86828701611878565b925050604061194c8682870161188d565b9150509250925092565b6000806040838503121561196957600080fd5b600061197785828601611878565b92505060206119888582860161188d565b9150509250929050565b6000602082840312156119a457600080fd5b60006119b28482850161188d565b91505092915050565b6119c48161201f565b82525050565b6119d381612031565b82525050565b60006119e482611ee3565b6119ee8185611ef9565b93506119fe818560208601612074565b611a0781612166565b840191505092915050565b6000611a1f602383611ef9565b9150611a2a82612177565b604082019050919050565b6000611a42602283611ef9565b9150611a4d826121c6565b604082019050919050565b6000611a65602683611ef9565b9150611a7082612215565b604082019050919050565b6000611a88602283611ef9565b9150611a9382612264565b604082019050919050565b6000611aab602683611ef9565b9150611ab6826122b3565b604082019050919050565b6000611ace601083611ef9565b9150611ad982612302565b602082019050919050565b6000611af1601783611ef9565b9150611afc8261232b565b602082019050919050565b6000611b14602883611ef9565b9150611b1f82612354565b604082019050919050565b6000611b37602083611ef9565b9150611b42826123a3565b602082019050919050565b6000611b5a603583611ef9565b9150611b65826123cc565b604082019050919050565b6000611b7d602183611ef9565b9150611b888261241b565b604082019050919050565b6000611ba0602583611ef9565b9150611bab8261246a565b604082019050919050565b6000611bc3600083611eee565b9150611bce826124b9565b600082019050919050565b6000611be6602483611ef9565b9150611bf1826124bc565b604082019050919050565b6000611c09602583611ef9565b9150611c148261250b565b604082019050919050565b6000611c2c601f83611ef9565b9150611c378261255a565b602082019050919050565b611c4b8161205d565b82525050565b611c5a81612067565b82525050565b6000611c6b82611bb6565b9150819050919050565b6000602082019050611c8a60008301846119bb565b92915050565b6000602082019050611ca560008301846119ca565b92915050565b60006020820190508181036000830152611cc581846119d9565b905092915050565b60006020820190508181036000830152611ce681611a12565b9050919050565b60006020820190508181036000830152611d0681611a35565b9050919050565b60006020820190508181036000830152611d2681611a58565b9050919050565b60006020820190508181036000830152611d4681611a7b565b9050919050565b60006020820190508181036000830152611d6681611a9e565b9050919050565b60006020820190508181036000830152611d8681611ac1565b9050919050565b60006020820190508181036000830152611da681611ae4565b9050919050565b60006020820190508181036000830152611dc681611b07565b9050919050565b60006020820190508181036000830152611de681611b2a565b9050919050565b60006020820190508181036000830152611e0681611b4d565b9050919050565b60006020820190508181036000830152611e2681611b70565b9050919050565b60006020820190508181036000830152611e4681611b93565b9050919050565b60006020820190508181036000830152611e6681611bd9565b9050919050565b60006020820190508181036000830152611e8681611bfc565b9050919050565b60006020820190508181036000830152611ea681611c1f565b9050919050565b6000602082019050611ec26000830184611c42565b92915050565b6000602082019050611edd6000830184611c51565b92915050565b600081519050919050565b600081905092915050565b600082825260208201905092915050565b6000611f158261205d565b9150611f208361205d565b9250827fffffffffffffffffffffffffffffffffffffffffffffffffffffffffffffffff03821115611f5557611f546120d9565b5b828201905092915050565b6000611f6b8261205d565b9150611f768361205d565b925082611f8657611f85612108565b5b828204905092915050565b6000611f9c8261205d565b9150611fa78361205d565b9250817fffffffffffffffffffffffffffffffffffffffffffffffffffffffffffffffff0483118215151615611fe057611fdf6120d9565b5b828202905092915050565b6000611ff68261205d565b91506120018361205d565b925082821015612014576120136120d9565b5b828203905092915050565b600061202a8261203d565b9050919050565b60008115159050919050565b600073ffffffffffffffffffffffffffffffffffffffff82169050919050565b6000819050919050565b600060ff82169050919050565b60005b83811015612092578082015181840152602081019050612077565b838111156120a1576000848401525b50505050565b600060028204905060018216806120bf57607f821691505b602082108114156120d3576120d2612137565b5b50919050565b7f4e487b7100000000000000000000000000000000000000000000000000000000600052601160045260246000fd5b7f4e487b7100000000000000000000000000000000000000000000000000000000600052601260045260246000fd5b7f4e487b7100000000000000000000000000000000000000000000000000000000600052602260045260246000fd5b6000601f19601f8301169050919050565b7f45524332303a207472616e7366657220746f20746865207a65726f206164647260008201527f6573730000000000000000000000000000000000000000000000000000000000602082015250565b7f45524332303a206275726e20616d6f756e7420657863656564732062616c616e60008201527f6365000000000000000000000000000000000000000000000000000000000000602082015250565b7f4f776e61626c653a206e6577206f776e657220697320746865207a65726f206160008201527f6464726573730000000000000000000000000000000000000000000000000000602082015250565b7f45524332303a20617070726f766520746f20746865207a65726f20616464726560008201527f7373000000000000000000000000000000000000000000000000000000000000602082015250565b7f45524332303a207472616e7366657220616d6f756e742065786365656473206260008201527f616c616e63650000000000000000000000000000000000000000000000000000602082015250565b7f4e6f206469766964656e64206f77656400000000000000000000000000000000600082015250565b7f4572726f7220636c61696d696e67206469766964656e64000000000000000000600082015250565b7f45524332303a207472616e7366657220616d6f756e742065786365656473206160008201527f6c6c6f77616e6365000000000000000000000000000000000000000000000000602082015250565b7f4f776e61626c653a2063616c6c6572206973206e6f7420746865206f776e6572600082015250565b7f426f74682070617274696573206d75737420636c61696d206469766964656e6460008201527f73206265666f726520616e79207472616e736665720000000000000000000000602082015250565b7f45524332303a206275726e2066726f6d20746865207a65726f2061646472657360008201527f7300000000000000000000000000000000000000000000000000000000000000602082015250565b7f45524332303a207472616e736665722066726f6d20746865207a65726f20616460008201527f6472657373000000000000000000000000000000000000000000000000000000602082015250565b50565b7f45524332303a20617070726f76652066726f6d20746865207a65726f2061646460008201527f7265737300000000000000000000000000000000000000000000000000000000602082015250565b7f45524332303a2064656372656173656420616c6c6f77616e63652062656c6f7760008201527f207a65726f000000000000000000000000000000000000000000000000000000602082015250565b7f45524332303a206d696e7420746f20746865207a65726f206164647265737300600082015250565b61258c8161201f565b811461259757600080fd5b50565b6125a38161205d565b81146125ae57600080fd5b5056fea264697066735822122068a40827aa6948275114ee5e3ef2ee9c739d4acf1563157bceaed6285265fd5464736f6c63430008040033",
  "linkReferences": {},
  "deployedLinkReferences": {}
}