{
  "_format": "hh-sol-artifact-1",
  "contractName": "BaseErc20",
  "sourceName": "contracts/BaseErc20.sol",
  "abi": [
    {
      "inputs": [
        {
          "internalType": "string",
          "name": "_name",
          "type": "string"
        },
        {
          "internalType": "string",
          "name": "_symbol",
          "type": "string"
        },
        {
          "internalType": "uint256",
          "name": "_supply",
          "type": "uint256"
        }
      ],
      "stateMutability": "nonpayable",
      "type": "constructor"
    },
    {
      "anonymous": false,
      "inputs": [
        {
          "indexed": true,
          "internalType": "address",
          "name": "owner",
          "type": "address"
        },
        {
          "indexed": true,
          "internalType": "address",
          "name": "spender",
          "type": "address"
        },
        {
          "indexed": false,
          "internalType": "uint256",
          "name": "value",
          "type": "uint256"
        }
      ],
      "name": "Approval",
      "type": "event"
    },
    {
      "anonymous": false,
      "inputs": [
        {
          "indexed": true,
          "internalType": "address",
          "name": "previousOwner",
          "type": "address"
        },
        {
          "indexed": true,
          "internalType": "address",
          "name": "newOwner",
          "type": "address"
        }
      ],
      "name": "OwnershipTransferred",
      "type": "event"
    },
    {
      "anonymous": false,
      "inputs": [
        {
          "indexed": false,
          "internalType": "uint256",
          "name": "",
          "type": "uint256"
        }
      ],
      "name": "TotalSharesIncreased",
      "type": "event"
    },
    {
      "anonymous": false,
      "inputs": [
        {
          "indexed": false,
          "internalType": "uint256",
          "name": "",
          "type": "uint256"
        }
      ],
      "name": "TotalSharesReduced",
      "type": "event"
    },
    {
      "anonymous": false,
      "inputs": [
        {
          "indexed": true,
          "internalType": "address",
          "name": "from",
          "type": "address"
        },
        {
          "indexed": true,
          "internalType": "address",
          "name": "to",
          "type": "address"
        },
        {
          "indexed": false,
          "internalType": "uint256",
          "name": "value",
          "type": "uint256"
        }
      ],
      "name": "Transfer",
      "type": "event"
    },
    {
      "inputs": [
        {
          "internalType": "uint256",
          "name": "_quantity",
          "type": "uint256"
        }
      ],
      "name": "addShares",
      "outputs": [],
      "stateMutability": "nonpayable",
      "type": "function"
    },
    {
      "inputs": [
        {
          "internalType": "address",
          "name": "owner",
          "type": "address"
        },
        {
          "internalType": "address",
          "name": "spender",
          "type": "address"
        }
      ],
      "name": "allowance",
      "outputs": [
        {
          "internalType": "uint256",
          "name": "",
          "type": "uint256"
        }
      ],
      "stateMutability": "view",
      "type": "function"
    },
    {
      "inputs": [
        {
          "internalType": "address",
          "name": "spender",
          "type": "address"
        },
        {
          "internalType": "uint256",
          "name": "amount",
          "type": "uint256"
        }
      ],
      "name": "approve",
      "outputs": [
        {
          "internalType": "bool",
          "name": "",
          "type": "bool"
        }
      ],
      "stateMutability": "nonpayable",
      "type": "function"
    },
    {
      "inputs": [
        {
          "internalType": "address",
          "name": "account",
          "type": "address"
        }
      ],
      "name": "balanceOf",
      "outputs": [
        {
          "internalType": "uint256",
          "name": "",
          "type": "uint256"
        }
      ],
      "stateMutability": "view",
      "type": "function"
    },
    {
      "inputs": [],
      "name": "decimals",
      "outputs": [
        {
          "internalType": "uint8",
          "name": "",
          "type": "uint8"
        }
      ],
      "stateMutability": "view",
      "type": "function"
    },
    {
      "inputs": [
        {
          "internalType": "address",
          "name": "spender",
          "type": "address"
        },
        {
          "internalType": "uint256",
          "name": "subtractedValue",
          "type": "uint256"
        }
      ],
      "name": "decreaseAllowance",
      "outputs": [
        {
          "internalType": "bool",
          "name": "",
          "type": "bool"
        }
      ],
      "stateMutability": "nonpayable",
      "type": "function"
    },
    {
      "inputs": [
        {
          "internalType": "address",
          "name": "spender",
          "type": "address"
        },
        {
          "internalType": "uint256",
          "name": "addedValue",
          "type": "uint256"
        }
      ],
      "name": "increaseAllowance",
      "outputs": [
        {
          "internalType": "bool",
          "name": "",
          "type": "bool"
        }
      ],
      "stateMutability": "nonpayable",
      "type": "function"
    },
    {
      "inputs": [],
      "name": "name",
      "outputs": [
        {
          "internalType": "string",
          "name": "",
          "type": "string"
        }
      ],
      "stateMutability": "view",
      "type": "function"
    },
    {
      "inputs": [],
      "name": "owner",
      "outputs": [
        {
          "internalType": "address",
          "name": "",
          "type": "address"
        }
      ],
      "stateMutability": "view",
      "type": "function"
    },
    {
      "inputs": [
        {
          "internalType": "uint256",
          "name": "_quantity",
          "type": "uint256"
        }
      ],
      "name": "reduceShares",
      "outputs": [],
      "stateMutability": "nonpayable",
      "type": "function"
    },
    {
      "inputs": [],
      "name": "renounceOwnership",
      "outputs": [],
      "stateMutability": "nonpayable",
      "type": "function"
    },
    {
      "inputs": [],
      "name": "symbol",
      "outputs": [
        {
          "internalType": "string",
          "name": "",
          "type": "string"
        }
      ],
      "stateMutability": "view",
      "type": "function"
    },
    {
      "inputs": [],
      "name": "totalSupply",
      "outputs": [
        {
          "internalType": "uint256",
          "name": "",
          "type": "uint256"
        }
      ],
      "stateMutability": "view",
      "type": "function"
    },
    {
      "inputs": [
        {
          "internalType": "address",
          "name": "recipient",
          "type": "address"
        },
        {
          "internalType": "uint256",
          "name": "amount",
          "type": "uint256"
        }
      ],
      "name": "transfer",
      "outputs": [
        {
          "internalType": "bool",
          "name": "",
          "type": "bool"
        }
      ],
      "stateMutability": "nonpayable",
      "type": "function"
    },
    {
      "inputs": [
        {
          "internalType": "address",
          "name": "sender",
          "type": "address"
        },
        {
          "internalType": "address",
          "name": "recipient",
          "type": "address"
        },
        {
          "internalType": "uint256",
          "name": "amount",
          "type": "uint256"
        }
      ],
      "name": "transferFrom",
      "outputs": [
        {
          "internalType": "bool",
          "name": "",
          "type": "bool"
        }
      ],
      "stateMutability": "nonpayable",
      "type": "function"
    },
    {
      "inputs": [
        {
          "internalType": "address",
          "name": "newOwner",
          "type": "address"
        }
      ],
      "name": "transferOwnership",
      "outputs": [],
      "stateMutability": "nonpayable",
      "type": "function"
    }
  ],
  "bytecode": "0x60806040523480156200001157600080fd5b506040516200263f3803806200263f833981810160405281019062000037919062000432565b8282816003908051906020019062000051929190620002f9565b5080600490805190602001906200006a929190620002f9565b5050506200008d62000081620000a860201b60201c565b620000b060201b60201c565b6200009f33826200017660201b60201c565b5050506200078b565b600033905090565b6000600560009054906101000a900473ffffffffffffffffffffffffffffffffffffffff16905081600560006101000a81548173ffffffffffffffffffffffffffffffffffffffff021916908373ffffffffffffffffffffffffffffffffffffffff1602179055508173ffffffffffffffffffffffffffffffffffffffff168173ffffffffffffffffffffffffffffffffffffffff167f8be0079c531659141344cd1fd0a4f28419497f9722a3daafe3b4186f6b6457e060405160405180910390a35050565b600073ffffffffffffffffffffffffffffffffffffffff168273ffffffffffffffffffffffffffffffffffffffff161415620001e9576040517f08c379a0000000000000000000000000000000000000000000000000000000008152600401620001e090620004f2565b60405180910390fd5b620001fd60008383620002ef60201b60201c565b8060026000828254620002119190620005a1565b92505081905550806000808473ffffffffffffffffffffffffffffffffffffffff1673ffffffffffffffffffffffffffffffffffffffff1681526020019081526020016000206000828254620002689190620005a1565b925050819055508173ffffffffffffffffffffffffffffffffffffffff16600073ffffffffffffffffffffffffffffffffffffffff167fddf252ad1be2c89b69c2b068fc378daa952ba7f163c4a11628f55a4df523b3ef83604051620002cf919062000514565b60405180910390a3620002eb60008383620002f460201b60201c565b5050565b505050565b505050565b82805462000307906200063e565b90600052602060002090601f0160209004810192826200032b576000855562000377565b82601f106200034657805160ff191683800117855562000377565b8280016001018555821562000377579182015b828111156200037657825182559160200191906001019062000359565b5b5090506200038691906200038a565b5090565b5b80821115620003a55760008160009055506001016200038b565b5090565b6000620003c0620003ba846200055a565b62000531565b905082815260208101848484011115620003d957600080fd5b620003e684828562000608565b509392505050565b600082601f8301126200040057600080fd5b815162000412848260208601620003a9565b91505092915050565b6000815190506200042c8162000771565b92915050565b6000806000606084860312156200044857600080fd5b600084015167ffffffffffffffff8111156200046357600080fd5b6200047186828701620003ee565b935050602084015167ffffffffffffffff8111156200048f57600080fd5b6200049d86828701620003ee565b9250506040620004b0868287016200041b565b9150509250925092565b6000620004c9601f8362000590565b9150620004d68262000748565b602082019050919050565b620004ec81620005fe565b82525050565b600060208201905081810360008301526200050d81620004ba565b9050919050565b60006020820190506200052b6000830184620004e1565b92915050565b60006200053d62000550565b90506200054b828262000674565b919050565b6000604051905090565b600067ffffffffffffffff82111562000578576200057762000708565b5b620005838262000737565b9050602081019050919050565b600082825260208201905092915050565b6000620005ae82620005fe565b9150620005bb83620005fe565b9250827fffffffffffffffffffffffffffffffffffffffffffffffffffffffffffffffff03821115620005f357620005f2620006aa565b5b828201905092915050565b6000819050919050565b60005b83811015620006285780820151818401526020810190506200060b565b8381111562000638576000848401525b50505050565b600060028204905060018216806200065757607f821691505b602082108114156200066e576200066d620006d9565b5b50919050565b6200067f8262000737565b810181811067ffffffffffffffff82111715620006a157620006a062000708565b5b80604052505050565b7f4e487b7100000000000000000000000000000000000000000000000000000000600052601160045260246000fd5b7f4e487b7100000000000000000000000000000000000000000000000000000000600052602260045260246000fd5b7f4e487b7100000000000000000000000000000000000000000000000000000000600052604160045260246000fd5b6000601f19601f8301169050919050565b7f45524332303a206d696e7420746f20746865207a65726f206164647265737300600082015250565b6200077c81620005fe565b81146200078857600080fd5b50565b611ea4806200079b6000396000f3fe608060405234801561001057600080fd5b50600436106101005760003560e01c80638da5cb5b11610097578063a457c2d711610066578063a457c2d71461029d578063a9059cbb146102cd578063dd62ed3e146102fd578063f2fde38b1461032d57610100565b80638da5cb5b146102295780639428706b1461024757806395d89b411461026357806399651db81461028157610100565b8063313ce567116100d3578063313ce567146101a157806339509351146101bf57806370a08231146101ef578063715018a61461021f57610100565b806306fdde0314610105578063095ea7b31461012357806318160ddd1461015357806323b872dd14610171575b600080fd5b61010d610349565b60405161011a9190611731565b60405180910390f35b61013d6004803603810190610138919061147d565b6103db565b60405161014a9190611716565b60405180910390f35b61015b6103f9565b60405161016891906118d3565b60405180910390f35b61018b6004803603810190610186919061142e565b610403565b6040516101989190611716565b60405180910390f35b6101a96104fb565b6040516101b691906118ee565b60405180910390f35b6101d960048036038101906101d4919061147d565b610504565b6040516101e69190611716565b60405180910390f35b610209600480360381019061020491906113c9565b6105b0565b60405161021691906118d3565b60405180910390f35b6102276105f8565b005b610231610680565b60405161023e91906116fb565b60405180910390f35b610261600480360381019061025c91906114b9565b6106aa565b005b61026b61076a565b6040516102789190611731565b60405180910390f35b61029b600480360381019061029691906114b9565b6107fc565b005b6102b760048036038101906102b2919061147d565b6108bc565b6040516102c49190611716565b60405180910390f35b6102e760048036038101906102e2919061147d565b6109a7565b6040516102f49190611716565b60405180910390f35b610317600480360381019061031291906113f2565b6109c5565b60405161032491906118d3565b60405180910390f35b610347600480360381019061034291906113c9565b610a4c565b005b60606003805461035890611a37565b80601f016020809104026020016040519081016040528092919081815260200182805461038490611a37565b80156103d15780601f106103a6576101008083540402835291602001916103d1565b820191906000526020600020905b8154815290600101906020018083116103b457829003601f168201915b5050505050905090565b60006103ef6103e8610b44565b8484610b4c565b6001905092915050565b6000600254905090565b6000610410848484610d17565b6000600160008673ffffffffffffffffffffffffffffffffffffffff1673ffffffffffffffffffffffffffffffffffffffff168152602001908152602001600020600061045b610b44565b73ffffffffffffffffffffffffffffffffffffffff1673ffffffffffffffffffffffffffffffffffffffff168152602001908152602001600020549050828110156104db576040517f08c379a00000000000000000000000000000000000000000000000000000000081526004016104d2906117f3565b60405180910390fd5b6104ef856104e7610b44565b858403610b4c565b60019150509392505050565b60006012905090565b60006105a6610511610b44565b84846001600061051f610b44565b73ffffffffffffffffffffffffffffffffffffffff1673ffffffffffffffffffffffffffffffffffffffff16815260200190815260200160002060008873ffffffffffffffffffffffffffffffffffffffff1673ffffffffffffffffffffffffffffffffffffffff168152602001908152602001600020546105a19190611925565b610b4c565b6001905092915050565b60008060008373ffffffffffffffffffffffffffffffffffffffff1673ffffffffffffffffffffffffffffffffffffffff168152602001908152602001600020549050919050565b610600610b44565b73ffffffffffffffffffffffffffffffffffffffff1661061e610680565b73ffffffffffffffffffffffffffffffffffffffff1614610674576040517f08c379a000000000000000000000000000000000000000000000000000000000815260040161066b90611813565b60405180910390fd5b61067e6000610f98565b565b6000600560009054906101000a900473ffffffffffffffffffffffffffffffffffffffff16905090565b6106b2610b44565b73ffffffffffffffffffffffffffffffffffffffff166106d0610680565b73ffffffffffffffffffffffffffffffffffffffff1614610726576040517f08c379a000000000000000000000000000000000000000000000000000000000815260040161071d90611813565b60405180910390fd5b610730338261105e565b7f72470486306bc4162b554ff891a323b255f386ecb3ad25a29769a9b79f6787e98160405161075f91906118d3565b60405180910390a150565b60606004805461077990611a37565b80601f01602080910402602001604051908101604052809291908181526020018280546107a590611a37565b80156107f25780601f106107c7576101008083540402835291602001916107f2565b820191906000526020600020905b8154815290600101906020018083116107d557829003601f168201915b5050505050905090565b610804610b44565b73ffffffffffffffffffffffffffffffffffffffff16610822610680565b73ffffffffffffffffffffffffffffffffffffffff1614610878576040517f08c379a000000000000000000000000000000000000000000000000000000000815260040161086f90611813565b60405180910390fd5b6108823382611235565b7f302cb9b5dee94536cd0608c23994d43d2b7c6f1e7a12c17f22b5adc841394245816040516108b191906118d3565b60405180910390a150565b600080600160006108cb610b44565b73ffffffffffffffffffffffffffffffffffffffff1673ffffffffffffffffffffffffffffffffffffffff16815260200190815260200160002060008573ffffffffffffffffffffffffffffffffffffffff1673ffffffffffffffffffffffffffffffffffffffff16815260200190815260200160002054905082811015610988576040517f08c379a000000000000000000000000000000000000000000000000000000000815260040161097f90611893565b60405180910390fd5b61099c610993610b44565b85858403610b4c565b600191505092915050565b60006109bb6109b4610b44565b8484610d17565b6001905092915050565b6000600160008473ffffffffffffffffffffffffffffffffffffffff1673ffffffffffffffffffffffffffffffffffffffff16815260200190815260200160002060008373ffffffffffffffffffffffffffffffffffffffff1673ffffffffffffffffffffffffffffffffffffffff16815260200190815260200160002054905092915050565b610a54610b44565b73ffffffffffffffffffffffffffffffffffffffff16610a72610680565b73ffffffffffffffffffffffffffffffffffffffff1614610ac8576040517f08c379a0000000000000000000000000000000000000000000000000000000008152600401610abf90611813565b60405180910390fd5b600073ffffffffffffffffffffffffffffffffffffffff168173ffffffffffffffffffffffffffffffffffffffff161415610b38576040517f08c379a0000000000000000000000000000000000000000000000000000000008152600401610b2f90611793565b60405180910390fd5b610b4181610f98565b50565b600033905090565b600073ffffffffffffffffffffffffffffffffffffffff168373ffffffffffffffffffffffffffffffffffffffff161415610bbc576040517f08c379a0000000000000000000000000000000000000000000000000000000008152600401610bb390611873565b60405180910390fd5b600073ffffffffffffffffffffffffffffffffffffffff168273ffffffffffffffffffffffffffffffffffffffff161415610c2c576040517f08c379a0000000000000000000000000000000000000000000000000000000008152600401610c23906117b3565b60405180910390fd5b80600160008573ffffffffffffffffffffffffffffffffffffffff1673ffffffffffffffffffffffffffffffffffffffff16815260200190815260200160002060008473ffffffffffffffffffffffffffffffffffffffff1673ffffffffffffffffffffffffffffffffffffffff168152602001908152602001600020819055508173ffffffffffffffffffffffffffffffffffffffff168373ffffffffffffffffffffffffffffffffffffffff167f8c5be1e5ebec7d5bd14f71427d1e84f3dd0314c0f7b2291e5b200ac8c7c3b92583604051610d0a91906118d3565b60405180910390a3505050565b600073ffffffffffffffffffffffffffffffffffffffff168373ffffffffffffffffffffffffffffffffffffffff161415610d87576040517f08c379a0000000000000000000000000000000000000000000000000000000008152600401610d7e90611853565b60405180910390fd5b600073ffffffffffffffffffffffffffffffffffffffff168273ffffffffffffffffffffffffffffffffffffffff161415610df7576040517f08c379a0000000000000000000000000000000000000000000000000000000008152600401610dee90611753565b60405180910390fd5b610e02838383611395565b60008060008573ffffffffffffffffffffffffffffffffffffffff1673ffffffffffffffffffffffffffffffffffffffff16815260200190815260200160002054905081811015610e88576040517f08c379a0000000000000000000000000000000000000000000000000000000008152600401610e7f906117d3565b60405180910390fd5b8181036000808673ffffffffffffffffffffffffffffffffffffffff1673ffffffffffffffffffffffffffffffffffffffff16815260200190815260200160002081905550816000808573ffffffffffffffffffffffffffffffffffffffff1673ffffffffffffffffffffffffffffffffffffffff1681526020019081526020016000206000828254610f1b9190611925565b925050819055508273ffffffffffffffffffffffffffffffffffffffff168473ffffffffffffffffffffffffffffffffffffffff167fddf252ad1be2c89b69c2b068fc378daa952ba7f163c4a11628f55a4df523b3ef84604051610f7f91906118d3565b60405180910390a3610f9284848461139a565b50505050565b6000600560009054906101000a900473ffffffffffffffffffffffffffffffffffffffff16905081600560006101000a81548173ffffffffffffffffffffffffffffffffffffffff021916908373ffffffffffffffffffffffffffffffffffffffff1602179055508173ffffffffffffffffffffffffffffffffffffffff168173ffffffffffffffffffffffffffffffffffffffff167f8be0079c531659141344cd1fd0a4f28419497f9722a3daafe3b4186f6b6457e060405160405180910390a35050565b600073ffffffffffffffffffffffffffffffffffffffff168273ffffffffffffffffffffffffffffffffffffffff1614156110ce576040517f08c379a00000000000000000000000000000000000000000000000000000000081526004016110c590611833565b60405180910390fd5b6110da82600083611395565b60008060008473ffffffffffffffffffffffffffffffffffffffff1673ffffffffffffffffffffffffffffffffffffffff16815260200190815260200160002054905081811015611160576040517f08c379a000000000000000000000000000000000000000000000000000000000815260040161115790611773565b60405180910390fd5b8181036000808573ffffffffffffffffffffffffffffffffffffffff1673ffffffffffffffffffffffffffffffffffffffff1681526020019081526020016000208190555081600260008282546111b7919061197b565b92505081905550600073ffffffffffffffffffffffffffffffffffffffff168373ffffffffffffffffffffffffffffffffffffffff167fddf252ad1be2c89b69c2b068fc378daa952ba7f163c4a11628f55a4df523b3ef8460405161121c91906118d3565b60405180910390a36112308360008461139a565b505050565b600073ffffffffffffffffffffffffffffffffffffffff168273ffffffffffffffffffffffffffffffffffffffff1614156112a5576040517f08c379a000000000000000000000000000000000000000000000000000000000815260040161129c906118b3565b60405180910390fd5b6112b160008383611395565b80600260008282546112c39190611925565b92505081905550806000808473ffffffffffffffffffffffffffffffffffffffff1673ffffffffffffffffffffffffffffffffffffffff16815260200190815260200160002060008282546113189190611925565b925050819055508173ffffffffffffffffffffffffffffffffffffffff16600073ffffffffffffffffffffffffffffffffffffffff167fddf252ad1be2c89b69c2b068fc378daa952ba7f163c4a11628f55a4df523b3ef8360405161137d91906118d3565b60405180910390a36113916000838361139a565b5050565b505050565b505050565b6000813590506113ae81611e40565b92915050565b6000813590506113c381611e57565b92915050565b6000602082840312156113db57600080fd5b60006113e98482850161139f565b91505092915050565b6000806040838503121561140557600080fd5b60006114138582860161139f565b92505060206114248582860161139f565b9150509250929050565b60008060006060848603121561144357600080fd5b60006114518682870161139f565b93505060206114628682870161139f565b9250506040611473868287016113b4565b9150509250925092565b6000806040838503121561149057600080fd5b600061149e8582860161139f565b92505060206114af858286016113b4565b9150509250929050565b6000602082840312156114cb57600080fd5b60006114d9848285016113b4565b91505092915050565b6114eb816119af565b82525050565b6114fa816119c1565b82525050565b600061150b82611909565b6115158185611914565b9350611525818560208601611a04565b61152e81611ac7565b840191505092915050565b6000611546602383611914565b915061155182611ad8565b604082019050919050565b6000611569602283611914565b915061157482611b27565b604082019050919050565b600061158c602683611914565b915061159782611b76565b604082019050919050565b60006115af602283611914565b91506115ba82611bc5565b604082019050919050565b60006115d2602683611914565b91506115dd82611c14565b604082019050919050565b60006115f5602883611914565b915061160082611c63565b604082019050919050565b6000611618602083611914565b915061162382611cb2565b602082019050919050565b600061163b602183611914565b915061164682611cdb565b604082019050919050565b600061165e602583611914565b915061166982611d2a565b604082019050919050565b6000611681602483611914565b915061168c82611d79565b604082019050919050565b60006116a4602583611914565b91506116af82611dc8565b604082019050919050565b60006116c7601f83611914565b91506116d282611e17565b602082019050919050565b6116e6816119ed565b82525050565b6116f5816119f7565b82525050565b600060208201905061171060008301846114e2565b92915050565b600060208201905061172b60008301846114f1565b92915050565b6000602082019050818103600083015261174b8184611500565b905092915050565b6000602082019050818103600083015261176c81611539565b9050919050565b6000602082019050818103600083015261178c8161155c565b9050919050565b600060208201905081810360008301526117ac8161157f565b9050919050565b600060208201905081810360008301526117cc816115a2565b9050919050565b600060208201905081810360008301526117ec816115c5565b9050919050565b6000602082019050818103600083015261180c816115e8565b9050919050565b6000602082019050818103600083015261182c8161160b565b9050919050565b6000602082019050818103600083015261184c8161162e565b9050919050565b6000602082019050818103600083015261186c81611651565b9050919050565b6000602082019050818103600083015261188c81611674565b9050919050565b600060208201905081810360008301526118ac81611697565b9050919050565b600060208201905081810360008301526118cc816116ba565b9050919050565b60006020820190506118e860008301846116dd565b92915050565b600060208201905061190360008301846116ec565b92915050565b600081519050919050565b600082825260208201905092915050565b6000611930826119ed565b915061193b836119ed565b9250827fffffffffffffffffffffffffffffffffffffffffffffffffffffffffffffffff038211156119705761196f611a69565b5b828201905092915050565b6000611986826119ed565b9150611991836119ed565b9250828210156119a4576119a3611a69565b5b828203905092915050565b60006119ba826119cd565b9050919050565b60008115159050919050565b600073ffffffffffffffffffffffffffffffffffffffff82169050919050565b6000819050919050565b600060ff82169050919050565b60005b83811015611a22578082015181840152602081019050611a07565b83811115611a31576000848401525b50505050565b60006002820490506001821680611a4f57607f821691505b60208210811415611a6357611a62611a98565b5b50919050565b7f4e487b7100000000000000000000000000000000000000000000000000000000600052601160045260246000fd5b7f4e487b7100000000000000000000000000000000000000000000000000000000600052602260045260246000fd5b6000601f19601f8301169050919050565b7f45524332303a207472616e7366657220746f20746865207a65726f206164647260008201527f6573730000000000000000000000000000000000000000000000000000000000602082015250565b7f45524332303a206275726e20616d6f756e7420657863656564732062616c616e60008201527f6365000000000000000000000000000000000000000000000000000000000000602082015250565b7f4f776e61626c653a206e6577206f776e657220697320746865207a65726f206160008201527f6464726573730000000000000000000000000000000000000000000000000000602082015250565b7f45524332303a20617070726f766520746f20746865207a65726f20616464726560008201527f7373000000000000000000000000000000000000000000000000000000000000602082015250565b7f45524332303a207472616e7366657220616d6f756e742065786365656473206260008201527f616c616e63650000000000000000000000000000000000000000000000000000602082015250565b7f45524332303a207472616e7366657220616d6f756e742065786365656473206160008201527f6c6c6f77616e6365000000000000000000000000000000000000000000000000602082015250565b7f4f776e61626c653a2063616c6c6572206973206e6f7420746865206f776e6572600082015250565b7f45524332303a206275726e2066726f6d20746865207a65726f2061646472657360008201527f7300000000000000000000000000000000000000000000000000000000000000602082015250565b7f45524332303a207472616e736665722066726f6d20746865207a65726f20616460008201527f6472657373000000000000000000000000000000000000000000000000000000602082015250565b7f45524332303a20617070726f76652066726f6d20746865207a65726f2061646460008201527f7265737300000000000000000000000000000000000000000000000000000000602082015250565b7f45524332303a2064656372656173656420616c6c6f77616e63652062656c6f7760008201527f207a65726f000000000000000000000000000000000000000000000000000000602082015250565b7f45524332303a206d696e7420746f20746865207a65726f206164647265737300600082015250565b611e49816119af565b8114611e5457600080fd5b50565b611e60816119ed565b8114611e6b57600080fd5b5056fea2646970667358221220058864c80bb0a4395cd6e2254d88feede1445ecc5f9f90d4662c5bca9af225c464736f6c63430008040033",
  "linkReferences": {},
  "deployedLinkReferences": {}
}