{
  "_format": "hh-sol-artifact-1",
  "contractName": "BaseErc721",
  "sourceName": "contracts/BaseErc721.sol",
  "abi": [
    {
      "inputs": [
        {
          "internalType": "string",
          "name": "_name",
          "type": "string"
        },
        {
          "internalType": "string",
          "name": "_symbol",
          "type": "string"
        },
        {
          "internalType": "string",
          "name": "_baseURL",
          "type": "string"
        },
        {
          "internalType": "bytes32",
          "name": "_merkleRoot",
          "type": "bytes32"
        }
      ],
      "stateMutability": "nonpayable",
      "type": "constructor"
    },
    {
      "anonymous": false,
      "inputs": [
        {
          "indexed": true,
          "internalType": "address",
          "name": "owner",
          "type": "address"
        },
        {
          "indexed": true,
          "internalType": "address",
          "name": "approved",
          "type": "address"
        },
        {
          "indexed": true,
          "internalType": "uint256",
          "name": "tokenId",
          "type": "uint256"
        }
      ],
      "name": "Approval",
      "type": "event"
    },
    {
      "anonymous": false,
      "inputs": [
        {
          "indexed": true,
          "internalType": "address",
          "name": "owner",
          "type": "address"
        },
        {
          "indexed": true,
          "internalType": "address",
          "name": "operator",
          "type": "address"
        },
        {
          "indexed": false,
          "internalType": "bool",
          "name": "approved",
          "type": "bool"
        }
      ],
      "name": "ApprovalForAll",
      "type": "event"
    },
    {
      "anonymous": false,
      "inputs": [
        {
          "indexed": true,
          "internalType": "address",
          "name": "previousOwner",
          "type": "address"
        },
        {
          "indexed": true,
          "internalType": "address",
          "name": "newOwner",
          "type": "address"
        }
      ],
      "name": "OwnershipTransferred",
      "type": "event"
    },
    {
      "anonymous": false,
      "inputs": [
        {
          "indexed": true,
          "internalType": "address",
          "name": "from",
          "type": "address"
        },
        {
          "indexed": true,
          "internalType": "address",
          "name": "to",
          "type": "address"
        },
        {
          "indexed": true,
          "internalType": "uint256",
          "name": "tokenId",
          "type": "uint256"
        }
      ],
      "name": "Transfer",
      "type": "event"
    },
    {
      "inputs": [
        {
          "internalType": "address",
          "name": "to",
          "type": "address"
        },
        {
          "internalType": "uint256",
          "name": "tokenId",
          "type": "uint256"
        }
      ],
      "name": "approve",
      "outputs": [],
      "stateMutability": "nonpayable",
      "type": "function"
    },
    {
      "inputs": [
        {
          "internalType": "address",
          "name": "owner",
          "type": "address"
        }
      ],
      "name": "balanceOf",
      "outputs": [
        {
          "internalType": "uint256",
          "name": "",
          "type": "uint256"
        }
      ],
      "stateMutability": "view",
      "type": "function"
    },
    {
      "inputs": [],
      "name": "baseURL",
      "outputs": [
        {
          "internalType": "string",
          "name": "",
          "type": "string"
        }
      ],
      "stateMutability": "view",
      "type": "function"
    },
    {
      "inputs": [
        {
          "internalType": "bytes32[]",
          "name": "_merkleProof",
          "type": "bytes32[]"
        }
      ],
      "name": "claim",
      "outputs": [],
      "stateMutability": "nonpayable",
      "type": "function"
    },
    {
      "inputs": [
        {
          "internalType": "uint256",
          "name": "tokenId",
          "type": "uint256"
        }
      ],
      "name": "getApproved",
      "outputs": [
        {
          "internalType": "address",
          "name": "",
          "type": "address"
        }
      ],
      "stateMutability": "view",
      "type": "function"
    },
    {
      "inputs": [
        {
          "internalType": "address",
          "name": "owner",
          "type": "address"
        },
        {
          "internalType": "address",
          "name": "operator",
          "type": "address"
        }
      ],
      "name": "isApprovedForAll",
      "outputs": [
        {
          "internalType": "bool",
          "name": "",
          "type": "bool"
        }
      ],
      "stateMutability": "view",
      "type": "function"
    },
    {
      "inputs": [],
      "name": "merkleRootWhitelist",
      "outputs": [
        {
          "internalType": "bytes32",
          "name": "",
          "type": "bytes32"
        }
      ],
      "stateMutability": "view",
      "type": "function"
    },
    {
      "inputs": [],
      "name": "name",
      "outputs": [
        {
          "internalType": "string",
          "name": "",
          "type": "string"
        }
      ],
      "stateMutability": "view",
      "type": "function"
    },
    {
      "inputs": [],
      "name": "owner",
      "outputs": [
        {
          "internalType": "address",
          "name": "",
          "type": "address"
        }
      ],
      "stateMutability": "view",
      "type": "function"
    },
    {
      "inputs": [
        {
          "internalType": "uint256",
          "name": "tokenId",
          "type": "uint256"
        }
      ],
      "name": "ownerOf",
      "outputs": [
        {
          "internalType": "address",
          "name": "",
          "type": "address"
        }
      ],
      "stateMutability": "view",
      "type": "function"
    },
    {
      "inputs": [],
      "name": "renounceOwnership",
      "outputs": [],
      "stateMutability": "nonpayable",
      "type": "function"
    },
    {
      "inputs": [
        {
          "internalType": "address",
          "name": "from",
          "type": "address"
        },
        {
          "internalType": "address",
          "name": "to",
          "type": "address"
        },
        {
          "internalType": "uint256",
          "name": "tokenId",
          "type": "uint256"
        }
      ],
      "name": "safeTransferFrom",
      "outputs": [],
      "stateMutability": "nonpayable",
      "type": "function"
    },
    {
      "inputs": [
        {
          "internalType": "address",
          "name": "from",
          "type": "address"
        },
        {
          "internalType": "address",
          "name": "to",
          "type": "address"
        },
        {
          "internalType": "uint256",
          "name": "tokenId",
          "type": "uint256"
        },
        {
          "internalType": "bytes",
          "name": "_data",
          "type": "bytes"
        }
      ],
      "name": "safeTransferFrom",
      "outputs": [],
      "stateMutability": "nonpayable",
      "type": "function"
    },
    {
      "inputs": [
        {
          "internalType": "address",
          "name": "operator",
          "type": "address"
        },
        {
          "internalType": "bool",
          "name": "approved",
          "type": "bool"
        }
      ],
      "name": "setApprovalForAll",
      "outputs": [],
      "stateMutability": "nonpayable",
      "type": "function"
    },
    {
      "inputs": [
        {
          "internalType": "bytes4",
          "name": "interfaceId",
          "type": "bytes4"
        }
      ],
      "name": "supportsInterface",
      "outputs": [
        {
          "internalType": "bool",
          "name": "",
          "type": "bool"
        }
      ],
      "stateMutability": "view",
      "type": "function"
    },
    {
      "inputs": [],
      "name": "symbol",
      "outputs": [
        {
          "internalType": "string",
          "name": "",
          "type": "string"
        }
      ],
      "stateMutability": "view",
      "type": "function"
    },
    {
      "inputs": [],
      "name": "tokenId",
      "outputs": [
        {
          "internalType": "uint256",
          "name": "",
          "type": "uint256"
        }
      ],
      "stateMutability": "view",
      "type": "function"
    },
    {
      "inputs": [
        {
          "internalType": "uint256",
          "name": "_tokenId",
          "type": "uint256"
        }
      ],
      "name": "tokenURI",
      "outputs": [
        {
          "internalType": "string",
          "name": "",
          "type": "string"
        }
      ],
      "stateMutability": "view",
      "type": "function"
    },
    {
      "inputs": [
        {
          "internalType": "address",
          "name": "from",
          "type": "address"
        },
        {
          "internalType": "address",
          "name": "to",
          "type": "address"
        },
        {
          "internalType": "uint256",
          "name": "tokenId",
          "type": "uint256"
        }
      ],
      "name": "transferFrom",
      "outputs": [],
      "stateMutability": "nonpayable",
      "type": "function"
    },
    {
      "inputs": [
        {
          "internalType": "address",
          "name": "newOwner",
          "type": "address"
        }
      ],
      "name": "transferOwnership",
      "outputs": [],
      "stateMutability": "nonpayable",
      "type": "function"
    },
    {
      "inputs": [
        {
          "internalType": "address",
          "name": "",
          "type": "address"
        }
      ],
      "name": "whitelistClaimed",
      "outputs": [
        {
          "internalType": "bool",
          "name": "",
          "type": "bool"
        }
      ],
      "stateMutability": "view",
      "type": "function"
    }
  ],
  "bytecode": "0x60806040523480156200001157600080fd5b50604051620038de380380620038de8339818101604052810190620000379190620002c6565b83838160009080519060200190620000519291906200018d565b5080600190805190602001906200006a9291906200018d565b5050506200008d62000081620000bf60201b60201c565b620000c760201b60201c565b60006007819055508160089080519060200190620000ad9291906200018d565b50806009819055505050505062000511565b600033905090565b6000600660009054906101000a900473ffffffffffffffffffffffffffffffffffffffff16905081600660006101000a81548173ffffffffffffffffffffffffffffffffffffffff021916908373ffffffffffffffffffffffffffffffffffffffff1602179055508173ffffffffffffffffffffffffffffffffffffffff168173ffffffffffffffffffffffffffffffffffffffff167f8be0079c531659141344cd1fd0a4f28419497f9722a3daafe3b4186f6b6457e060405160405180910390a35050565b8280546200019b906200041c565b90600052602060002090601f016020900481019282620001bf57600085556200020b565b82601f10620001da57805160ff19168380011785556200020b565b828001600101855582156200020b579182015b828111156200020a578251825591602001919060010190620001ed565b5b5090506200021a91906200021e565b5090565b5b80821115620002395760008160009055506001016200021f565b5090565b6000620002546200024e84620003a6565b6200037d565b9050828152602081018484840111156200026d57600080fd5b6200027a848285620003e6565b509392505050565b6000815190506200029381620004f7565b92915050565b600082601f830112620002ab57600080fd5b8151620002bd8482602086016200023d565b91505092915050565b60008060008060808587031215620002dd57600080fd5b600085015167ffffffffffffffff811115620002f857600080fd5b620003068782880162000299565b945050602085015167ffffffffffffffff8111156200032457600080fd5b620003328782880162000299565b935050604085015167ffffffffffffffff8111156200035057600080fd5b6200035e8782880162000299565b9250506060620003718782880162000282565b91505092959194509250565b6000620003896200039c565b905062000397828262000452565b919050565b6000604051905090565b600067ffffffffffffffff821115620003c457620003c3620004b7565b5b620003cf82620004e6565b9050602081019050919050565b6000819050919050565b60005b8381101562000406578082015181840152602081019050620003e9565b8381111562000416576000848401525b50505050565b600060028204905060018216806200043557607f821691505b602082108114156200044c576200044b62000488565b5b50919050565b6200045d82620004e6565b810181811067ffffffffffffffff821117156200047f576200047e620004b7565b5b80604052505050565b7f4e487b7100000000000000000000000000000000000000000000000000000000600052602260045260246000fd5b7f4e487b7100000000000000000000000000000000000000000000000000000000600052604160045260246000fd5b6000601f19601f8301169050919050565b6200050281620003dc565b81146200050e57600080fd5b50565b6133bd80620005216000396000f3fe608060405234801561001057600080fd5b50600436106101375760003560e01c8063715018a6116100b8578063b391c5081161007c578063b391c5081461032a578063b88d4fde14610346578063c87b56dd14610362578063db4bec4414610392578063e985e9c5146103c2578063f2fde38b146103f257610137565b8063715018a6146102aa5780638da5cb5b146102b45780638e1f9cfe146102d257806395d89b41146102f0578063a22cb4651461030e57610137565b806323b872dd116100ff57806323b872dd146101f457806340c84b0e1461021057806342842e0e1461022e5780636352211e1461024a57806370a082311461027a57610137565b806301ffc9a71461013c57806306fdde031461016c578063081812fc1461018a578063095ea7b3146101ba57806317d70f7c146101d6575b600080fd5b61015660048036038101906101519190612109565b61040e565b604051610163919061269e565b60405180910390f35b6101746104f0565b60405161018191906126d4565b60405180910390f35b6101a4600480360381019061019f919061215b565b610582565b6040516101b19190612637565b60405180910390f35b6101d460048036038101906101cf9190612088565b610607565b005b6101de61071f565b6040516101eb9190612936565b60405180910390f35b61020e60048036038101906102099190611f82565b610725565b005b610218610785565b60405161022591906126d4565b60405180910390f35b61024860048036038101906102439190611f82565b610813565b005b610264600480360381019061025f919061215b565b610833565b6040516102719190612637565b60405180910390f35b610294600480360381019061028f9190611f1d565b6108e5565b6040516102a19190612936565b60405180910390f35b6102b261099d565b005b6102bc610a25565b6040516102c99190612637565b60405180910390f35b6102da610a4f565b6040516102e791906126b9565b60405180910390f35b6102f8610a55565b60405161030591906126d4565b60405180910390f35b6103286004803603810190610323919061204c565b610ae7565b005b610344600480360381019061033f91906120c4565b610afd565b005b610360600480360381019061035b9190611fd1565b610cc5565b005b61037c6004803603810190610377919061215b565b610d27565b60405161038991906126d4565b60405180910390f35b6103ac60048036038101906103a79190611f1d565b610e3b565b6040516103b9919061269e565b60405180910390f35b6103dc60048036038101906103d79190611f46565b610e5b565b6040516103e9919061269e565b60405180910390f35b61040c60048036038101906104079190611f1d565b610eef565b005b60007f80ac58cd000000000000000000000000000000000000000000000000000000007bffffffffffffffffffffffffffffffffffffffffffffffffffffffff1916827bffffffffffffffffffffffffffffffffffffffffffffffffffffffff191614806104d957507f5b5e139f000000000000000000000000000000000000000000000000000000007bffffffffffffffffffffffffffffffffffffffffffffffffffffffff1916827bffffffffffffffffffffffffffffffffffffffffffffffffffffffff1916145b806104e957506104e882610fe7565b5b9050919050565b6060600080546104ff90612c03565b80601f016020809104026020016040519081016040528092919081815260200182805461052b90612c03565b80156105785780601f1061054d57610100808354040283529160200191610578565b820191906000526020600020905b81548152906001019060200180831161055b57829003601f168201915b5050505050905090565b600061058d82611051565b6105cc576040517f08c379a00000000000000000000000000000000000000000000000000000000081526004016105c390612876565b60405180910390fd5b6004600083815260200190815260200160002060009054906101000a900473ffffffffffffffffffffffffffffffffffffffff169050919050565b600061061282610833565b90508073ffffffffffffffffffffffffffffffffffffffff168373ffffffffffffffffffffffffffffffffffffffff161415610683576040517f08c379a000000000000000000000000000000000000000000000000000000000815260040161067a906128d6565b60405180910390fd5b8073ffffffffffffffffffffffffffffffffffffffff166106a26110bd565b73ffffffffffffffffffffffffffffffffffffffff1614806106d157506106d0816106cb6110bd565b610e5b565b5b610710576040517f08c379a0000000000000000000000000000000000000000000000000000000008152600401610707906127f6565b60405180910390fd5b61071a83836110c5565b505050565b60075481565b6107366107306110bd565b8261117e565b610775576040517f08c379a000000000000000000000000000000000000000000000000000000000815260040161076c906128f6565b60405180910390fd5b61078083838361125c565b505050565b6008805461079290612c03565b80601f01602080910402602001604051908101604052809291908181526020018280546107be90612c03565b801561080b5780601f106107e05761010080835404028352916020019161080b565b820191906000526020600020905b8154815290600101906020018083116107ee57829003601f168201915b505050505081565b61082e83838360405180602001604052806000815250610cc5565b505050565b6000806002600084815260200190815260200160002060009054906101000a900473ffffffffffffffffffffffffffffffffffffffff169050600073ffffffffffffffffffffffffffffffffffffffff168173ffffffffffffffffffffffffffffffffffffffff1614156108dc576040517f08c379a00000000000000000000000000000000000000000000000000000000081526004016108d390612836565b60405180910390fd5b80915050919050565b60008073ffffffffffffffffffffffffffffffffffffffff168273ffffffffffffffffffffffffffffffffffffffff161415610956576040517f08c379a000000000000000000000000000000000000000000000000000000000815260040161094d90612816565b60405180910390fd5b600360008373ffffffffffffffffffffffffffffffffffffffff1673ffffffffffffffffffffffffffffffffffffffff168152602001908152602001600020549050919050565b6109a56110bd565b73ffffffffffffffffffffffffffffffffffffffff166109c3610a25565b73ffffffffffffffffffffffffffffffffffffffff1614610a19576040517f08c379a0000000000000000000000000000000000000000000000000000000008152600401610a1090612896565b60405180910390fd5b610a2360006114b8565b565b6000600660009054906101000a900473ffffffffffffffffffffffffffffffffffffffff16905090565b60095481565b606060018054610a6490612c03565b80601f0160208091040260200160405190810160405280929190818152602001828054610a9090612c03565b8015610add5780601f10610ab257610100808354040283529160200191610add565b820191906000526020600020905b815481529060010190602001808311610ac057829003601f168201915b5050505050905090565b610af9610af26110bd565b838361157e565b5050565b600a60003373ffffffffffffffffffffffffffffffffffffffff1673ffffffffffffffffffffffffffffffffffffffff16815260200190815260200160002060009054906101000a900460ff1615610b8a576040517f08c379a0000000000000000000000000000000000000000000000000000000008152600401610b8190612756565b60405180910390fd5b600033604051602001610b9d9190612593565b604051602081830303815290604052805190602001209050610c03838380806020026020016040519081016040528093929190818152602001838360200280828437600081840152601f19601f82011690508083019250505050505050600954836116eb565b610c42576040517f08c379a0000000000000000000000000000000000000000000000000000000008152600401610c3990612916565b60405180910390fd5b6001600a60003373ffffffffffffffffffffffffffffffffffffffff1673ffffffffffffffffffffffffffffffffffffffff16815260200190815260200160002060006101000a81548160ff021916908315150217905550610ca633600754611702565b600160076000828254610cb991906129ea565b92505081905550505050565b610cd6610cd06110bd565b8361117e565b610d15576040517f08c379a0000000000000000000000000000000000000000000000000000000008152600401610d0c906128f6565b60405180910390fd5b610d2184848484611720565b50505050565b6060610d3282611051565b610d71576040517f08c379a0000000000000000000000000000000000000000000000000000000008152600401610d68906127b6565b60405180910390fd5b600060088054610d8090612c03565b80601f0160208091040260200160405190810160405280929190818152602001828054610dac90612c03565b8015610df95780601f10610dce57610100808354040283529160200191610df9565b820191906000526020600020905b815481529060010190602001808311610ddc57829003601f168201915b50505050509050610e086104f0565b610e118461177c565b82604051602001610e24939291906125da565b604051602081830303815290604052915050919050565b600a6020528060005260406000206000915054906101000a900460ff1681565b6000600560008473ffffffffffffffffffffffffffffffffffffffff1673ffffffffffffffffffffffffffffffffffffffff16815260200190815260200160002060008373ffffffffffffffffffffffffffffffffffffffff1673ffffffffffffffffffffffffffffffffffffffff16815260200190815260200160002060009054906101000a900460ff16905092915050565b610ef76110bd565b73ffffffffffffffffffffffffffffffffffffffff16610f15610a25565b73ffffffffffffffffffffffffffffffffffffffff1614610f6b576040517f08c379a0000000000000000000000000000000000000000000000000000000008152600401610f6290612896565b60405180910390fd5b600073ffffffffffffffffffffffffffffffffffffffff168173ffffffffffffffffffffffffffffffffffffffff161415610fdb576040517f08c379a0000000000000000000000000000000000000000000000000000000008152600401610fd290612716565b60405180910390fd5b610fe4816114b8565b50565b60007f01ffc9a7000000000000000000000000000000000000000000000000000000007bffffffffffffffffffffffffffffffffffffffffffffffffffffffff1916827bffffffffffffffffffffffffffffffffffffffffffffffffffffffff1916149050919050565b60008073ffffffffffffffffffffffffffffffffffffffff166002600084815260200190815260200160002060009054906101000a900473ffffffffffffffffffffffffffffffffffffffff1673ffffffffffffffffffffffffffffffffffffffff1614159050919050565b600033905090565b816004600083815260200190815260200160002060006101000a81548173ffffffffffffffffffffffffffffffffffffffff021916908373ffffffffffffffffffffffffffffffffffffffff160217905550808273ffffffffffffffffffffffffffffffffffffffff1661113883610833565b73ffffffffffffffffffffffffffffffffffffffff167f8c5be1e5ebec7d5bd14f71427d1e84f3dd0314c0f7b2291e5b200ac8c7c3b92560405160405180910390a45050565b600061118982611051565b6111c8576040517f08c379a00000000000000000000000000000000000000000000000000000000081526004016111bf906127d6565b60405180910390fd5b60006111d383610833565b90508073ffffffffffffffffffffffffffffffffffffffff168473ffffffffffffffffffffffffffffffffffffffff16148061124257508373ffffffffffffffffffffffffffffffffffffffff1661122a84610582565b73ffffffffffffffffffffffffffffffffffffffff16145b8061125357506112528185610e5b565b5b91505092915050565b8273ffffffffffffffffffffffffffffffffffffffff1661127c82610833565b73ffffffffffffffffffffffffffffffffffffffff16146112d2576040517f08c379a00000000000000000000000000000000000000000000000000000000081526004016112c9906128b6565b60405180910390fd5b600073ffffffffffffffffffffffffffffffffffffffff168273ffffffffffffffffffffffffffffffffffffffff161415611342576040517f08c379a000000000000000000000000000000000000000000000000000000000815260040161133990612776565b60405180910390fd5b61134d838383611951565b6113586000826110c5565b6001600360008573ffffffffffffffffffffffffffffffffffffffff1673ffffffffffffffffffffffffffffffffffffffff16815260200190815260200160002060008282546113a89190612b02565b925050819055506001600360008473ffffffffffffffffffffffffffffffffffffffff1673ffffffffffffffffffffffffffffffffffffffff16815260200190815260200160002060008282546113ff91906129ea565b92505081905550816002600083815260200190815260200160002060006101000a81548173ffffffffffffffffffffffffffffffffffffffff021916908373ffffffffffffffffffffffffffffffffffffffff160217905550808273ffffffffffffffffffffffffffffffffffffffff168473ffffffffffffffffffffffffffffffffffffffff167fddf252ad1be2c89b69c2b068fc378daa952ba7f163c4a11628f55a4df523b3ef60405160405180910390a4505050565b6000600660009054906101000a900473ffffffffffffffffffffffffffffffffffffffff16905081600660006101000a81548173ffffffffffffffffffffffffffffffffffffffff021916908373ffffffffffffffffffffffffffffffffffffffff1602179055508173ffffffffffffffffffffffffffffffffffffffff168173ffffffffffffffffffffffffffffffffffffffff167f8be0079c531659141344cd1fd0a4f28419497f9722a3daafe3b4186f6b6457e060405160405180910390a35050565b8173ffffffffffffffffffffffffffffffffffffffff168373ffffffffffffffffffffffffffffffffffffffff1614156115ed576040517f08c379a00000000000000000000000000000000000000000000000000000000081526004016115e490612796565b60405180910390fd5b80600560008573ffffffffffffffffffffffffffffffffffffffff1673ffffffffffffffffffffffffffffffffffffffff16815260200190815260200160002060008473ffffffffffffffffffffffffffffffffffffffff1673ffffffffffffffffffffffffffffffffffffffff16815260200190815260200160002060006101000a81548160ff0219169083151502179055508173ffffffffffffffffffffffffffffffffffffffff168373ffffffffffffffffffffffffffffffffffffffff167f17307eab39ab6107e8899845ad3d59bd9653f200f220920489ca2b5937696c31836040516116de919061269e565b60405180910390a3505050565b6000826116f88584611956565b1490509392505050565b61171c828260405180602001604052806000815250611a2f565b5050565b61172b84848461125c565b61173784848484611a8a565b611776576040517f08c379a000000000000000000000000000000000000000000000000000000000815260040161176d906126f6565b60405180910390fd5b50505050565b606060008214156117c4576040518060400160405280600181526020017f3000000000000000000000000000000000000000000000000000000000000000815250905061194c565b600082905060005b600082146117f65780806117df90612c66565b915050600a826117ef9190612a77565b91506117cc565b60008167ffffffffffffffff811115611838577f4e487b7100000000000000000000000000000000000000000000000000000000600052604160045260246000fd5b6040519080825280601f01601f19166020018201604052801561186a5781602001600182028036833780820191505090505b50905060008290505b60008614611944576001816118889190612b02565b90506000600a808861189a9190612a77565b6118a49190612aa8565b876118af9190612b02565b60306118bb9190612a40565b905060008160f81b9050808484815181106118ff577f4e487b7100000000000000000000000000000000000000000000000000000000600052603260045260246000fd5b60200101907effffffffffffffffffffffffffffffffffffffffffffffffffffffffffffff1916908160001a905350600a8861193b9190612a77565b97505050611873565b819450505050505b919050565b505050565b60008082905060005b8451811015611a245760008582815181106119a3577f4e487b7100000000000000000000000000000000000000000000000000000000600052603260045260246000fd5b602002602001015190508083116119e45782816040516020016119c79291906125ae565b604051602081830303815290604052805190602001209250611a10565b80836040516020016119f79291906125ae565b6040516020818303038152906040528051906020012092505b508080611a1c90612c66565b91505061195f565b508091505092915050565b611a398383611c21565b611a466000848484611a8a565b611a85576040517f08c379a0000000000000000000000000000000000000000000000000000000008152600401611a7c906126f6565b60405180910390fd5b505050565b6000611aab8473ffffffffffffffffffffffffffffffffffffffff16611def565b15611c14578373ffffffffffffffffffffffffffffffffffffffff1663150b7a02611ad46110bd565b8786866040518563ffffffff1660e01b8152600401611af69493929190612652565b602060405180830381600087803b158015611b1057600080fd5b505af1925050508015611b4157506040513d601f19601f82011682018060405250810190611b3e9190612132565b60015b611bc4573d8060008114611b71576040519150601f19603f3d011682016040523d82523d6000602084013e611b76565b606091505b50600081511415611bbc576040517f08c379a0000000000000000000000000000000000000000000000000000000008152600401611bb3906126f6565b60405180910390fd5b805181602001fd5b63150b7a0260e01b7bffffffffffffffffffffffffffffffffffffffffffffffffffffffff1916817bffffffffffffffffffffffffffffffffffffffffffffffffffffffff191614915050611c19565b600190505b949350505050565b600073ffffffffffffffffffffffffffffffffffffffff168273ffffffffffffffffffffffffffffffffffffffff161415611c91576040517f08c379a0000000000000000000000000000000000000000000000000000000008152600401611c8890612856565b60405180910390fd5b611c9a81611051565b15611cda576040517f08c379a0000000000000000000000000000000000000000000000000000000008152600401611cd190612736565b60405180910390fd5b611ce660008383611951565b6001600360008473ffffffffffffffffffffffffffffffffffffffff1673ffffffffffffffffffffffffffffffffffffffff1681526020019081526020016000206000828254611d3691906129ea565b92505081905550816002600083815260200190815260200160002060006101000a81548173ffffffffffffffffffffffffffffffffffffffff021916908373ffffffffffffffffffffffffffffffffffffffff160217905550808273ffffffffffffffffffffffffffffffffffffffff16600073ffffffffffffffffffffffffffffffffffffffff167fddf252ad1be2c89b69c2b068fc378daa952ba7f163c4a11628f55a4df523b3ef60405160405180910390a45050565b600080823b905060008111915050919050565b6000611e15611e1084612976565b612951565b905082815260208101848484011115611e2d57600080fd5b611e38848285612bc1565b509392505050565b600081359050611e4f8161332b565b92915050565b60008083601f840112611e6757600080fd5b8235905067ffffffffffffffff811115611e8057600080fd5b602083019150836020820283011115611e9857600080fd5b9250929050565b600081359050611eae81613342565b92915050565b600081359050611ec381613359565b92915050565b600081519050611ed881613359565b92915050565b600082601f830112611eef57600080fd5b8135611eff848260208601611e02565b91505092915050565b600081359050611f1781613370565b92915050565b600060208284031215611f2f57600080fd5b6000611f3d84828501611e40565b91505092915050565b60008060408385031215611f5957600080fd5b6000611f6785828601611e40565b9250506020611f7885828601611e40565b9150509250929050565b600080600060608486031215611f9757600080fd5b6000611fa586828701611e40565b9350506020611fb686828701611e40565b9250506040611fc786828701611f08565b9150509250925092565b60008060008060808587031215611fe757600080fd5b6000611ff587828801611e40565b945050602061200687828801611e40565b935050604061201787828801611f08565b925050606085013567ffffffffffffffff81111561203457600080fd5b61204087828801611ede565b91505092959194509250565b6000806040838503121561205f57600080fd5b600061206d85828601611e40565b925050602061207e85828601611e9f565b9150509250929050565b6000806040838503121561209b57600080fd5b60006120a985828601611e40565b92505060206120ba85828601611f08565b9150509250929050565b600080602083850312156120d757600080fd5b600083013567ffffffffffffffff8111156120f157600080fd5b6120fd85828601611e55565b92509250509250929050565b60006020828403121561211b57600080fd5b600061212984828501611eb4565b91505092915050565b60006020828403121561214457600080fd5b600061215284828501611ec9565b91505092915050565b60006020828403121561216d57600080fd5b600061217b84828501611f08565b91505092915050565b61218d81612b36565b82525050565b6121a461219f82612b36565b612caf565b82525050565b6121b381612b48565b82525050565b6121c281612b54565b82525050565b6121d96121d482612b54565b612cc1565b82525050565b60006121ea826129a7565b6121f481856129bd565b9350612204818560208601612bd0565b61220d81612d99565b840191505092915050565b6000612223826129b2565b61222d81856129ce565b935061223d818560208601612bd0565b61224681612d99565b840191505092915050565b600061225c826129b2565b61226681856129df565b9350612276818560208601612bd0565b80840191505092915050565b600061228f600b836129df565b915061229a82612db7565b600b82019050919050565b60006122b26032836129ce565b91506122bd82612de0565b604082019050919050565b60006122d56002836129df565b91506122e082612e2f565b600282019050919050565b60006122f86026836129ce565b915061230382612e58565b604082019050919050565b600061231b601c836129ce565b915061232682612ea7565b602082019050919050565b600061233e6028836129ce565b915061234982612ed0565b604082019050919050565b60006123616024836129ce565b915061236c82612f1f565b604082019050919050565b60006123846019836129ce565b915061238f82612f6e565b602082019050919050565b60006123a76014836129ce565b91506123b282612f97565b602082019050919050565b60006123ca602c836129ce565b91506123d582612fc0565b604082019050919050565b60006123ed6038836129ce565b91506123f88261300f565b604082019050919050565b6000612410602a836129ce565b915061241b8261305e565b604082019050919050565b60006124336029836129ce565b915061243e826130ad565b604082019050919050565b60006124566002836129df565b9150612461826130fc565b600282019050919050565b60006124796020836129ce565b915061248482613125565b602082019050919050565b600061249c6024836129df565b91506124a78261314e565b602482019050919050565b60006124bf602c836129ce565b91506124ca8261319d565b604082019050919050565b60006124e26020836129ce565b91506124ed826131ec565b602082019050919050565b60006125056029836129ce565b915061251082613215565b604082019050919050565b60006125286021836129ce565b915061253382613264565b604082019050919050565b600061254b6031836129ce565b9150612556826132b3565b604082019050919050565b600061256e600e836129ce565b915061257982613302565b602082019050919050565b61258d81612baa565b82525050565b600061259f8284612193565b60148201915081905092915050565b60006125ba82856121c8565b6020820191506125ca82846121c8565b6020820191508190509392505050565b60006125e58261248f565b91506125f18286612251565b91506125fc826122c8565b91506126088285612251565b915061261382612282565b915061261f8284612251565b915061262a82612449565b9150819050949350505050565b600060208201905061264c6000830184612184565b92915050565b60006080820190506126676000830187612184565b6126746020830186612184565b6126816040830185612584565b818103606083015261269381846121df565b905095945050505050565b60006020820190506126b360008301846121aa565b92915050565b60006020820190506126ce60008301846121b9565b92915050565b600060208201905081810360008301526126ee8184612218565b905092915050565b6000602082019050818103600083015261270f816122a5565b9050919050565b6000602082019050818103600083015261272f816122eb565b9050919050565b6000602082019050818103600083015261274f8161230e565b9050919050565b6000602082019050818103600083015261276f81612331565b9050919050565b6000602082019050818103600083015261278f81612354565b9050919050565b600060208201905081810360008301526127af81612377565b9050919050565b600060208201905081810360008301526127cf8161239a565b9050919050565b600060208201905081810360008301526127ef816123bd565b9050919050565b6000602082019050818103600083015261280f816123e0565b9050919050565b6000602082019050818103600083015261282f81612403565b9050919050565b6000602082019050818103600083015261284f81612426565b9050919050565b6000602082019050818103600083015261286f8161246c565b9050919050565b6000602082019050818103600083015261288f816124b2565b9050919050565b600060208201905081810360008301526128af816124d5565b9050919050565b600060208201905081810360008301526128cf816124f8565b9050919050565b600060208201905081810360008301526128ef8161251b565b9050919050565b6000602082019050818103600083015261290f8161253e565b9050919050565b6000602082019050818103600083015261292f81612561565b9050919050565b600060208201905061294b6000830184612584565b92915050565b600061295b61296c565b90506129678282612c35565b919050565b6000604051905090565b600067ffffffffffffffff82111561299157612990612d6a565b5b61299a82612d99565b9050602081019050919050565b600081519050919050565b600081519050919050565b600082825260208201905092915050565b600082825260208201905092915050565b600081905092915050565b60006129f582612baa565b9150612a0083612baa565b9250827fffffffffffffffffffffffffffffffffffffffffffffffffffffffffffffffff03821115612a3557612a34612cdd565b5b828201905092915050565b6000612a4b82612bb4565b9150612a5683612bb4565b92508260ff03821115612a6c57612a6b612cdd565b5b828201905092915050565b6000612a8282612baa565b9150612a8d83612baa565b925082612a9d57612a9c612d0c565b5b828204905092915050565b6000612ab382612baa565b9150612abe83612baa565b9250817fffffffffffffffffffffffffffffffffffffffffffffffffffffffffffffffff0483118215151615612af757612af6612cdd565b5b828202905092915050565b6000612b0d82612baa565b9150612b1883612baa565b925082821015612b2b57612b2a612cdd565b5b828203905092915050565b6000612b4182612b8a565b9050919050565b60008115159050919050565b6000819050919050565b60007fffffffff0000000000000000000000000000000000000000000000000000000082169050919050565b600073ffffffffffffffffffffffffffffffffffffffff82169050919050565b6000819050919050565b600060ff82169050919050565b82818337600083830152505050565b60005b83811015612bee578082015181840152602081019050612bd3565b83811115612bfd576000848401525b50505050565b60006002820490506001821680612c1b57607f821691505b60208210811415612c2f57612c2e612d3b565b5b50919050565b612c3e82612d99565b810181811067ffffffffffffffff82111715612c5d57612c5c612d6a565b5b80604052505050565b6000612c7182612baa565b91507fffffffffffffffffffffffffffffffffffffffffffffffffffffffffffffffff821415612ca457612ca3612cdd565b5b600182019050919050565b6000612cba82612ccb565b9050919050565b6000819050919050565b6000612cd682612daa565b9050919050565b7f4e487b7100000000000000000000000000000000000000000000000000000000600052601160045260246000fd5b7f4e487b7100000000000000000000000000000000000000000000000000000000600052601260045260246000fd5b7f4e487b7100000000000000000000000000000000000000000000000000000000600052602260045260246000fd5b7f4e487b7100000000000000000000000000000000000000000000000000000000600052604160045260246000fd5b6000601f19601f8301169050919050565b60008160601b9050919050565b7f222c22696d616765223a22000000000000000000000000000000000000000000600082015250565b7f4552433732313a207472616e7366657220746f206e6f6e20455243373231526560008201527f63656976657220696d706c656d656e7465720000000000000000000000000000602082015250565b7f2023000000000000000000000000000000000000000000000000000000000000600082015250565b7f4f776e61626c653a206e6577206f776e657220697320746865207a65726f206160008201527f6464726573730000000000000000000000000000000000000000000000000000602082015250565b7f4552433732313a20746f6b656e20616c7265616479206d696e74656400000000600082015250565b7f5468697320616464726573732068617320616c726561647920636c61696d656460008201527f20746865204e4654000000000000000000000000000000000000000000000000602082015250565b7f4552433732313a207472616e7366657220746f20746865207a65726f2061646460008201527f7265737300000000000000000000000000000000000000000000000000000000602082015250565b7f4552433732313a20617070726f766520746f2063616c6c657200000000000000600082015250565b7f546f6b656e20646f6573206e6f74206578697374000000000000000000000000600082015250565b7f4552433732313a206f70657261746f7220717565727920666f72206e6f6e657860008201527f697374656e7420746f6b656e0000000000000000000000000000000000000000602082015250565b7f4552433732313a20617070726f76652063616c6c6572206973206e6f74206f7760008201527f6e6572206e6f7220617070726f76656420666f7220616c6c0000000000000000602082015250565b7f4552433732313a2062616c616e636520717565727920666f7220746865207a6560008201527f726f206164647265737300000000000000000000000000000000000000000000602082015250565b7f4552433732313a206f776e657220717565727920666f72206e6f6e657869737460008201527f656e7420746f6b656e0000000000000000000000000000000000000000000000602082015250565b7f227d000000000000000000000000000000000000000000000000000000000000600082015250565b7f4552433732313a206d696e7420746f20746865207a65726f2061646472657373600082015250565b7f646174613a6170706c69636174696f6e2f6a736f6e3b757466382c7b226e616d60008201527f65223a2200000000000000000000000000000000000000000000000000000000602082015250565b7f4552433732313a20617070726f76656420717565727920666f72206e6f6e657860008201527f697374656e7420746f6b656e0000000000000000000000000000000000000000602082015250565b7f4f776e61626c653a2063616c6c6572206973206e6f7420746865206f776e6572600082015250565b7f4552433732313a207472616e73666572206f6620746f6b656e2074686174206960008201527f73206e6f74206f776e0000000000000000000000000000000000000000000000602082015250565b7f4552433732313a20617070726f76616c20746f2063757272656e74206f776e6560008201527f7200000000000000000000000000000000000000000000000000000000000000602082015250565b7f4552433732313a207472616e736665722063616c6c6572206973206e6f74206f60008201527f776e6572206e6f7220617070726f766564000000000000000000000000000000602082015250565b7f496e76616c69642070726f6f662e000000000000000000000000000000000000600082015250565b61333481612b36565b811461333f57600080fd5b50565b61334b81612b48565b811461335657600080fd5b50565b61336281612b5e565b811461336d57600080fd5b50565b61337981612baa565b811461338457600080fd5b5056fea2646970667358221220d8ac4a89bcb7fb479b033a366cae03195b720e787a1d2c7be511b9ac5cbb2a3564736f6c63430008040033",
  "linkReferences": {},
  "deployedLinkReferences": {}
}