{
  "_format": "hh-sol-artifact-1",
  "contractName": "VolcanoCoin",
  "sourceName": "contracts/VolcanoCoin.sol",
  "abi": [
    {
      "inputs": [],
      "stateMutability": "nonpayable",
      "type": "constructor"
    },
    {
      "anonymous": false,
      "inputs": [
        {
          "indexed": true,
          "internalType": "address",
          "name": "owner",
          "type": "address"
        },
        {
          "indexed": true,
          "internalType": "address",
          "name": "spender",
          "type": "address"
        },
        {
          "indexed": false,
          "internalType": "uint256",
          "name": "value",
          "type": "uint256"
        }
      ],
      "name": "Approval",
      "type": "event"
    },
    {
      "anonymous": false,
      "inputs": [
        {
          "indexed": true,
          "internalType": "address",
          "name": "previousOwner",
          "type": "address"
        },
        {
          "indexed": true,
          "internalType": "address",
          "name": "newOwner",
          "type": "address"
        }
      ],
      "name": "OwnershipTransferred",
      "type": "event"
    },
    {
      "anonymous": false,
      "inputs": [
        {
          "indexed": false,
          "internalType": "uint256",
          "name": "",
          "type": "uint256"
        }
      ],
      "name": "TotalSupplyIncreased",
      "type": "event"
    },
    {
      "anonymous": false,
      "inputs": [
        {
          "indexed": true,
          "internalType": "address",
          "name": "from",
          "type": "address"
        },
        {
          "indexed": true,
          "internalType": "address",
          "name": "to",
          "type": "address"
        },
        {
          "indexed": false,
          "internalType": "uint256",
          "name": "value",
          "type": "uint256"
        }
      ],
      "name": "Transfer",
      "type": "event"
    },
    {
      "inputs": [
        {
          "internalType": "uint256",
          "name": "_quantity",
          "type": "uint256"
        }
      ],
      "name": "addToTotalSupply",
      "outputs": [],
      "stateMutability": "nonpayable",
      "type": "function"
    },
    {
      "inputs": [
        {
          "internalType": "address",
          "name": "owner",
          "type": "address"
        },
        {
          "internalType": "address",
          "name": "spender",
          "type": "address"
        }
      ],
      "name": "allowance",
      "outputs": [
        {
          "internalType": "uint256",
          "name": "",
          "type": "uint256"
        }
      ],
      "stateMutability": "view",
      "type": "function"
    },
    {
      "inputs": [
        {
          "internalType": "address",
          "name": "spender",
          "type": "address"
        },
        {
          "internalType": "uint256",
          "name": "amount",
          "type": "uint256"
        }
      ],
      "name": "approve",
      "outputs": [
        {
          "internalType": "bool",
          "name": "",
          "type": "bool"
        }
      ],
      "stateMutability": "nonpayable",
      "type": "function"
    },
    {
      "inputs": [
        {
          "internalType": "address",
          "name": "account",
          "type": "address"
        }
      ],
      "name": "balanceOf",
      "outputs": [
        {
          "internalType": "uint256",
          "name": "",
          "type": "uint256"
        }
      ],
      "stateMutability": "view",
      "type": "function"
    },
    {
      "inputs": [],
      "name": "decimals",
      "outputs": [
        {
          "internalType": "uint8",
          "name": "",
          "type": "uint8"
        }
      ],
      "stateMutability": "view",
      "type": "function"
    },
    {
      "inputs": [
        {
          "internalType": "address",
          "name": "spender",
          "type": "address"
        },
        {
          "internalType": "uint256",
          "name": "subtractedValue",
          "type": "uint256"
        }
      ],
      "name": "decreaseAllowance",
      "outputs": [
        {
          "internalType": "bool",
          "name": "",
          "type": "bool"
        }
      ],
      "stateMutability": "nonpayable",
      "type": "function"
    },
    {
      "inputs": [
        {
          "internalType": "address",
          "name": "_addr",
          "type": "address"
        }
      ],
      "name": "getPayments",
      "outputs": [
        {
          "components": [
            {
              "internalType": "uint256",
              "name": "paymentId",
              "type": "uint256"
            },
            {
              "internalType": "uint256",
              "name": "amount",
              "type": "uint256"
            },
            {
              "internalType": "address",
              "name": "to",
              "type": "address"
            },
            {
              "internalType": "enum VolcanoCoin.PaymentType",
              "name": "paymentType",
              "type": "uint8"
            },
            {
              "internalType": "string",
              "name": "comment",
              "type": "string"
            },
            {
              "internalType": "uint256",
              "name": "timestamp",
              "type": "uint256"
            }
          ],
          "internalType": "struct VolcanoCoin.Payment[]",
          "name": "",
          "type": "tuple[]"
        }
      ],
      "stateMutability": "view",
      "type": "function"
    },
    {
      "inputs": [
        {
          "internalType": "address",
          "name": "spender",
          "type": "address"
        },
        {
          "internalType": "uint256",
          "name": "addedValue",
          "type": "uint256"
        }
      ],
      "name": "increaseAllowance",
      "outputs": [
        {
          "internalType": "bool",
          "name": "",
          "type": "bool"
        }
      ],
      "stateMutability": "nonpayable",
      "type": "function"
    },
    {
      "inputs": [],
      "name": "name",
      "outputs": [
        {
          "internalType": "string",
          "name": "",
          "type": "string"
        }
      ],
      "stateMutability": "view",
      "type": "function"
    },
    {
      "inputs": [],
      "name": "owner",
      "outputs": [
        {
          "internalType": "address",
          "name": "",
          "type": "address"
        }
      ],
      "stateMutability": "view",
      "type": "function"
    },
    {
      "inputs": [
        {
          "internalType": "address",
          "name": "",
          "type": "address"
        },
        {
          "internalType": "uint256",
          "name": "",
          "type": "uint256"
        }
      ],
      "name": "payments",
      "outputs": [
        {
          "internalType": "uint256",
          "name": "paymentId",
          "type": "uint256"
        },
        {
          "internalType": "uint256",
          "name": "amount",
          "type": "uint256"
        },
        {
          "internalType": "address",
          "name": "to",
          "type": "address"
        },
        {
          "internalType": "enum VolcanoCoin.PaymentType",
          "name": "paymentType",
          "type": "uint8"
        },
        {
          "internalType": "string",
          "name": "comment",
          "type": "string"
        },
        {
          "internalType": "uint256",
          "name": "timestamp",
          "type": "uint256"
        }
      ],
      "stateMutability": "view",
      "type": "function"
    },
    {
      "inputs": [],
      "name": "renounceOwnership",
      "outputs": [],
      "stateMutability": "nonpayable",
      "type": "function"
    },
    {
      "inputs": [],
      "name": "symbol",
      "outputs": [
        {
          "internalType": "string",
          "name": "",
          "type": "string"
        }
      ],
      "stateMutability": "view",
      "type": "function"
    },
    {
      "inputs": [],
      "name": "totalSupply",
      "outputs": [
        {
          "internalType": "uint256",
          "name": "",
          "type": "uint256"
        }
      ],
      "stateMutability": "view",
      "type": "function"
    },
    {
      "inputs": [
        {
          "internalType": "address",
          "name": "_recipient",
          "type": "address"
        },
        {
          "internalType": "uint256",
          "name": "_amount",
          "type": "uint256"
        }
      ],
      "name": "transfer",
      "outputs": [
        {
          "internalType": "bool",
          "name": "",
          "type": "bool"
        }
      ],
      "stateMutability": "nonpayable",
      "type": "function"
    },
    {
      "inputs": [
        {
          "internalType": "address",
          "name": "sender",
          "type": "address"
        },
        {
          "internalType": "address",
          "name": "recipient",
          "type": "address"
        },
        {
          "internalType": "uint256",
          "name": "amount",
          "type": "uint256"
        }
      ],
      "name": "transferFrom",
      "outputs": [
        {
          "internalType": "bool",
          "name": "",
          "type": "bool"
        }
      ],
      "stateMutability": "nonpayable",
      "type": "function"
    },
    {
      "inputs": [
        {
          "internalType": "address",
          "name": "newOwner",
          "type": "address"
        }
      ],
      "name": "transferOwnership",
      "outputs": [],
      "stateMutability": "nonpayable",
      "type": "function"
    },
    {
      "inputs": [
        {
          "internalType": "uint256",
          "name": "_paymentId",
          "type": "uint256"
        },
        {
          "internalType": "uint8",
          "name": "_paymentType",
          "type": "uint8"
        },
        {
          "internalType": "string",
          "name": "_comment",
          "type": "string"
        }
      ],
      "name": "updatePaymentDetails",
      "outputs": [],
      "stateMutability": "nonpayable",
      "type": "function"
    },
    {
      "inputs": [
        {
          "internalType": "address",
          "name": "_payer",
          "type": "address"
        },
        {
          "internalType": "uint256",
          "name": "_paymentId",
          "type": "uint256"
        },
        {
          "internalType": "uint8",
          "name": "_paymentType",
          "type": "uint8"
        }
      ],
      "name": "updatePaymentDetailsAdmin",
      "outputs": [],
      "stateMutability": "nonpayable",
      "type": "function"
    },
    {
      "inputs": [],
      "name": "viewPayments",
      "outputs": [
        {
          "components": [
            {
              "internalType": "uint256",
              "name": "paymentId",
              "type": "uint256"
            },
            {
              "internalType": "uint256",
              "name": "amount",
              "type": "uint256"
            },
            {
              "internalType": "address",
              "name": "to",
              "type": "address"
            },
            {
              "internalType": "enum VolcanoCoin.PaymentType",
              "name": "paymentType",
              "type": "uint8"
            },
            {
              "internalType": "string",
              "name": "comment",
              "type": "string"
            },
            {
              "internalType": "uint256",
              "name": "timestamp",
              "type": "uint256"
            }
          ],
          "internalType": "struct VolcanoCoin.Payment[]",
          "name": "",
          "type": "tuple[]"
        }
      ],
      "stateMutability": "view",
      "type": "function"
    }
  ],
  "bytecode": "0x60806040526004600760006101000a81548160ff021916908360ff1602179055503480156200002d57600080fd5b506040518060400160405280600c81526020017f566f6c63616e6f20436f696e00000000000000000000000000000000000000008152506040518060400160405280600381526020017f564c4300000000000000000000000000000000000000000000000000000000008152508160039080519060200190620000b29291906200039a565b508060049080519060200190620000cb9291906200039a565b505050620000ee620000e26200014960201b60201c565b6200015160201b60201c565b62000102336127106200021760201b60201c565b33600960006101000a81548173ffffffffffffffffffffffffffffffffffffffff021916908373ffffffffffffffffffffffffffffffffffffffff160217905550620005f6565b600033905090565b6000600560009054906101000a900473ffffffffffffffffffffffffffffffffffffffff16905081600560006101000a81548173ffffffffffffffffffffffffffffffffffffffff021916908373ffffffffffffffffffffffffffffffffffffffff1602179055508173ffffffffffffffffffffffffffffffffffffffff168173ffffffffffffffffffffffffffffffffffffffff167f8be0079c531659141344cd1fd0a4f28419497f9722a3daafe3b4186f6b6457e060405160405180910390a35050565b600073ffffffffffffffffffffffffffffffffffffffff168273ffffffffffffffffffffffffffffffffffffffff1614156200028a576040517f08c379a0000000000000000000000000000000000000000000000000000000008152600401620002819062000482565b60405180910390fd5b6200029e600083836200039060201b60201c565b8060026000828254620002b29190620004d2565b92505081905550806000808473ffffffffffffffffffffffffffffffffffffffff1673ffffffffffffffffffffffffffffffffffffffff1681526020019081526020016000206000828254620003099190620004d2565b925050819055508173ffffffffffffffffffffffffffffffffffffffff16600073ffffffffffffffffffffffffffffffffffffffff167fddf252ad1be2c89b69c2b068fc378daa952ba7f163c4a11628f55a4df523b3ef83604051620003709190620004a4565b60405180910390a36200038c600083836200039560201b60201c565b5050565b505050565b505050565b828054620003a89062000539565b90600052602060002090601f016020900481019282620003cc576000855562000418565b82601f10620003e757805160ff191683800117855562000418565b8280016001018555821562000418579182015b8281111562000417578251825591602001919060010190620003fa565b5b5090506200042791906200042b565b5090565b5b80821115620004465760008160009055506001016200042c565b5090565b600062000459601f83620004c1565b91506200046682620005cd565b602082019050919050565b6200047c816200052f565b82525050565b600060208201905081810360008301526200049d816200044a565b9050919050565b6000602082019050620004bb600083018462000471565b92915050565b600082825260208201905092915050565b6000620004df826200052f565b9150620004ec836200052f565b9250827fffffffffffffffffffffffffffffffffffffffffffffffffffffffffffffffff038211156200052457620005236200056f565b5b828201905092915050565b6000819050919050565b600060028204905060018216806200055257607f821691505b602082108114156200056957620005686200059e565b5b50919050565b7f4e487b7100000000000000000000000000000000000000000000000000000000600052601160045260246000fd5b7f4e487b7100000000000000000000000000000000000000000000000000000000600052602260045260246000fd5b7f45524332303a206d696e7420746f20746865207a65726f206164647265737300600082015250565b6139b780620006066000396000f3fe608060405234801561001057600080fd5b506004361061012c5760003560e01c80637da6c73b116100ad578063ab63385c11610071578063ab63385c14610359578063c569b08c1461038e578063dd62ed3e146103aa578063eaaee1e8146103da578063f2fde38b146103f85761012c565b80637da6c73b146102a15780638da5cb5b146102bd57806395d89b41146102db578063a457c2d7146102f9578063a9059cbb146103295761012c565b806328ce8845116100f457806328ce8845146101fd578063313ce56714610219578063395093511461023757806370a0823114610267578063715018a6146102975761012c565b806306fdde0314610131578063095ea7b31461014f57806318160ddd1461017f5780631d6a17111461019d57806323b872dd146101cd575b600080fd5b610139610414565b6040516101469190612eca565b60405180910390f35b61016960048036038101906101649190612825565b6104a6565b6040516101769190612eaf565b60405180910390f35b6101876104c4565b60405161019491906130ac565b60405180910390f35b6101b760048036038101906101b29190612771565b6104ce565b6040516101c49190612e8d565b60405180910390f35b6101e760048036038101906101e291906127d6565b6106f9565b6040516101f49190612eaf565b60405180910390f35b610217600480360381019061021291906128b0565b6107f1565b005b6102216108b1565b60405161022e919061312f565b60405180910390f35b610251600480360381019061024c9190612825565b6108ba565b60405161025e9190612eaf565b60405180910390f35b610281600480360381019061027c9190612771565b610966565b60405161028e91906130ac565b60405180910390f35b61029f6109ae565b005b6102bb60048036038101906102b69190612861565b610a36565b005b6102c5610df0565b6040516102d29190612e72565b60405180910390f35b6102e3610e1a565b6040516102f09190612eca565b60405180910390f35b610313600480360381019061030e9190612825565b610eac565b6040516103209190612eaf565b60405180910390f35b610343600480360381019061033e9190612825565b610f97565b6040516103509190612eaf565b60405180910390f35b610373600480360381019061036e9190612825565b610fc3565b604051610385969594939291906130c7565b60405180910390f35b6103a860048036038101906103a391906128d9565b6110d1565b005b6103c460048036038101906103bf919061279a565b61135a565b6040516103d191906130ac565b60405180910390f35b6103e26113e1565b6040516103ef9190612e8d565b60405180910390f35b610412600480360381019061040d9190612771565b61160a565b005b60606003805461042390613323565b80601f016020809104026020016040519081016040528092919081815260200182805461044f90613323565b801561049c5780601f106104715761010080835404028352916020019161049c565b820191906000526020600020905b81548152906001019060200180831161047f57829003601f168201915b5050505050905090565b60006104ba6104b3611702565b848461170a565b6001905092915050565b6000600254905090565b6060600860008373ffffffffffffffffffffffffffffffffffffffff1673ffffffffffffffffffffffffffffffffffffffff168152602001908152602001600020805480602002602001604051908101604052809291908181526020016000905b828210156106ee57838290600052602060002090600502016040518060c001604052908160008201548152602001600182015481526020016002820160009054906101000a900473ffffffffffffffffffffffffffffffffffffffff1673ffffffffffffffffffffffffffffffffffffffff1673ffffffffffffffffffffffffffffffffffffffff1681526020016002820160149054906101000a900460ff166004811115610607577f4e487b7100000000000000000000000000000000000000000000000000000000600052602160045260246000fd5b600481111561063f577f4e487b7100000000000000000000000000000000000000000000000000000000600052602160045260246000fd5b815260200160038201805461065390613323565b80601f016020809104026020016040519081016040528092919081815260200182805461067f90613323565b80156106cc5780601f106106a1576101008083540402835291602001916106cc565b820191906000526020600020905b8154815290600101906020018083116106af57829003601f168201915b505050505081526020016004820154815250508152602001906001019061052f565b505050509050919050565b60006107068484846118d5565b6000600160008673ffffffffffffffffffffffffffffffffffffffff1673ffffffffffffffffffffffffffffffffffffffff1681526020019081526020016000206000610751611702565b73ffffffffffffffffffffffffffffffffffffffff1673ffffffffffffffffffffffffffffffffffffffff168152602001908152602001600020549050828110156107d1576040517f08c379a00000000000000000000000000000000000000000000000000000000081526004016107c890612fac565b60405180910390fd5b6107e5856107dd611702565b85840361170a565b60019150509392505050565b6107f9611702565b73ffffffffffffffffffffffffffffffffffffffff16610817610df0565b73ffffffffffffffffffffffffffffffffffffffff161461086d576040517f08c379a000000000000000000000000000000000000000000000000000000000815260040161086490612fcc565b60405180910390fd5b6108773382611b56565b7f3ed9f2ae524f56b7b1960ca403bfc34fc142aac14d5f298a2267871212ed0096816040516108a691906130ac565b60405180910390a150565b60006012905090565b600061095c6108c7611702565b8484600160006108d5611702565b73ffffffffffffffffffffffffffffffffffffffff1673ffffffffffffffffffffffffffffffffffffffff16815260200190815260200160002060008873ffffffffffffffffffffffffffffffffffffffff1673ffffffffffffffffffffffffffffffffffffffff168152602001908152602001600020546109579190613211565b61170a565b6001905092915050565b60008060008373ffffffffffffffffffffffffffffffffffffffff1673ffffffffffffffffffffffffffffffffffffffff168152602001908152602001600020549050919050565b6109b6611702565b73ffffffffffffffffffffffffffffffffffffffff166109d4610df0565b73ffffffffffffffffffffffffffffffffffffffff1614610a2a576040517f08c379a0000000000000000000000000000000000000000000000000000000008152600401610a2190612fcc565b60405180910390fd5b610a346000611cb6565b565b600960009054906101000a900473ffffffffffffffffffffffffffffffffffffffff1673ffffffffffffffffffffffffffffffffffffffff163373ffffffffffffffffffffffffffffffffffffffff1614610ac6576040517f08c379a0000000000000000000000000000000000000000000000000000000008152600401610abd90612fec565b60405180910390fd5b6000806000610ad6868686611d7c565b9250925092508360ff166004811115610b18577f4e487b7100000000000000000000000000000000000000000000000000000000600052602160045260246000fd5b82606001906004811115610b55577f4e487b7100000000000000000000000000000000000000000000000000000000600052602160045260246000fd5b90816004811115610b8f577f4e487b7100000000000000000000000000000000000000000000000000000000600052602160045260246000fd5b81525050600082608001515114610c0c578160800151600960009054906101000a900473ffffffffffffffffffffffffffffffffffffffff16604051602001610bd89190612dd7565b604051602081830303815290604052604051602001610bf8929190612e21565b604051602081830303815290604052610c6e565b600960009054906101000a900473ffffffffffffffffffffffffffffffffffffffff16604051602001610c3f9190612dd7565b604051602081830303815290604052604051602001610c5e9190612e50565b6040516020818303038152906040525b826080018190525081838281548110610cb0577f4e487b7100000000000000000000000000000000000000000000000000000000600052603260045260246000fd5b9060005260206000209060050201600082015181600001556020820151816001015560408201518160020160006101000a81548173ffffffffffffffffffffffffffffffffffffffff021916908373ffffffffffffffffffffffffffffffffffffffff16021790555060608201518160020160146101000a81548160ff02191690836004811115610d6a577f4e487b7100000000000000000000000000000000000000000000000000000000600052602160045260246000fd5b02179055506080820151816003019080519060200190610d8b9291906122fc565b5060a0820151816004015590505082600860008873ffffffffffffffffffffffffffffffffffffffff1673ffffffffffffffffffffffffffffffffffffffff168152602001908152602001600020908054610de7929190612382565b50505050505050565b6000600560009054906101000a900473ffffffffffffffffffffffffffffffffffffffff16905090565b606060048054610e2990613323565b80601f0160208091040260200160405190810160405280929190818152602001828054610e5590613323565b8015610ea25780601f10610e7757610100808354040283529160200191610ea2565b820191906000526020600020905b815481529060010190602001808311610e8557829003601f168201915b5050505050905090565b60008060016000610ebb611702565b73ffffffffffffffffffffffffffffffffffffffff1673ffffffffffffffffffffffffffffffffffffffff16815260200190815260200160002060008573ffffffffffffffffffffffffffffffffffffffff1673ffffffffffffffffffffffffffffffffffffffff16815260200190815260200160002054905082811015610f78576040517f08c379a0000000000000000000000000000000000000000000000000000000008152600401610f6f9061306c565b60405180910390fd5b610f8c610f83611702565b8585840361170a565b600191505092915050565b6000610fa360066120f3565b610fae3384846118d5565b610fb9338484612109565b6001905092915050565b60086020528160005260406000208181548110610fdf57600080fd5b9060005260206000209060050201600091509150508060000154908060010154908060020160009054906101000a900473ffffffffffffffffffffffffffffffffffffffff16908060020160149054906101000a900460ff169080600301805461104890613323565b80601f016020809104026020016040519081016040528092919081815260200182805461107490613323565b80156110c15780601f10611096576101008083540402835291602001916110c1565b820191906000526020600020905b8154815290600101906020018083116110a457829003601f168201915b5050505050908060040154905086565b60008060006110e1338787611d7c565b9250925092508460ff166004811115611123577f4e487b7100000000000000000000000000000000000000000000000000000000600052602160045260246000fd5b82606001906004811115611160577f4e487b7100000000000000000000000000000000000000000000000000000000600052602160045260246000fd5b9081600481111561119a577f4e487b7100000000000000000000000000000000000000000000000000000000600052602160045260246000fd5b815250506000826080015151146111d6578160800151846040516020016111c2929190612df2565b6040516020818303038152906040526111d8565b835b82608001819052508183828154811061121a577f4e487b7100000000000000000000000000000000000000000000000000000000600052603260045260246000fd5b9060005260206000209060050201600082015181600001556020820151816001015560408201518160020160006101000a81548173ffffffffffffffffffffffffffffffffffffffff021916908373ffffffffffffffffffffffffffffffffffffffff16021790555060608201518160020160146101000a81548160ff021916908360048111156112d4577f4e487b7100000000000000000000000000000000000000000000000000000000600052602160045260246000fd5b021790555060808201518160030190805190602001906112f59291906122fc565b5060a0820151816004015590505082600860003373ffffffffffffffffffffffffffffffffffffffff1673ffffffffffffffffffffffffffffffffffffffff168152602001908152602001600020908054611351929190612382565b50505050505050565b6000600160008473ffffffffffffffffffffffffffffffffffffffff1673ffffffffffffffffffffffffffffffffffffffff16815260200190815260200160002060008373ffffffffffffffffffffffffffffffffffffffff1673ffffffffffffffffffffffffffffffffffffffff16815260200190815260200160002054905092915050565b6060600860003373ffffffffffffffffffffffffffffffffffffffff1673ffffffffffffffffffffffffffffffffffffffff168152602001908152602001600020805480602002602001604051908101604052809291908181526020016000905b8282101561160157838290600052602060002090600502016040518060c001604052908160008201548152602001600182015481526020016002820160009054906101000a900473ffffffffffffffffffffffffffffffffffffffff1673ffffffffffffffffffffffffffffffffffffffff1673ffffffffffffffffffffffffffffffffffffffff1681526020016002820160149054906101000a900460ff16600481111561151a577f4e487b7100000000000000000000000000000000000000000000000000000000600052602160045260246000fd5b6004811115611552577f4e487b7100000000000000000000000000000000000000000000000000000000600052602160045260246000fd5b815260200160038201805461156690613323565b80601f016020809104026020016040519081016040528092919081815260200182805461159290613323565b80156115df5780601f106115b4576101008083540402835291602001916115df565b820191906000526020600020905b8154815290600101906020018083116115c257829003601f168201915b5050505050815260200160048201548152505081526020019060010190611442565b50505050905090565b611612611702565b73ffffffffffffffffffffffffffffffffffffffff16611630610df0565b73ffffffffffffffffffffffffffffffffffffffff1614611686576040517f08c379a000000000000000000000000000000000000000000000000000000000815260040161167d90612fcc565b60405180910390fd5b600073ffffffffffffffffffffffffffffffffffffffff168173ffffffffffffffffffffffffffffffffffffffff1614156116f6576040517f08c379a00000000000000000000000000000000000000000000000000000000081526004016116ed90612f0c565b60405180910390fd5b6116ff81611cb6565b50565b600033905090565b600073ffffffffffffffffffffffffffffffffffffffff168373ffffffffffffffffffffffffffffffffffffffff16141561177a576040517f08c379a00000000000000000000000000000000000000000000000000000000081526004016117719061304c565b60405180910390fd5b600073ffffffffffffffffffffffffffffffffffffffff168273ffffffffffffffffffffffffffffffffffffffff1614156117ea576040517f08c379a00000000000000000000000000000000000000000000000000000000081526004016117e190612f2c565b60405180910390fd5b80600160008573ffffffffffffffffffffffffffffffffffffffff1673ffffffffffffffffffffffffffffffffffffffff16815260200190815260200160002060008473ffffffffffffffffffffffffffffffffffffffff1673ffffffffffffffffffffffffffffffffffffffff168152602001908152602001600020819055508173ffffffffffffffffffffffffffffffffffffffff168373ffffffffffffffffffffffffffffffffffffffff167f8c5be1e5ebec7d5bd14f71427d1e84f3dd0314c0f7b2291e5b200ac8c7c3b925836040516118c891906130ac565b60405180910390a3505050565b600073ffffffffffffffffffffffffffffffffffffffff168373ffffffffffffffffffffffffffffffffffffffff161415611945576040517f08c379a000000000000000000000000000000000000000000000000000000000815260040161193c9061300c565b60405180910390fd5b600073ffffffffffffffffffffffffffffffffffffffff168273ffffffffffffffffffffffffffffffffffffffff1614156119b5576040517f08c379a00000000000000000000000000000000000000000000000000000000081526004016119ac90612eec565b60405180910390fd5b6119c08383836122e4565b60008060008573ffffffffffffffffffffffffffffffffffffffff1673ffffffffffffffffffffffffffffffffffffffff16815260200190815260200160002054905081811015611a46576040517f08c379a0000000000000000000000000000000000000000000000000000000008152600401611a3d90612f4c565b60405180910390fd5b8181036000808673ffffffffffffffffffffffffffffffffffffffff1673ffffffffffffffffffffffffffffffffffffffff16815260200190815260200160002081905550816000808573ffffffffffffffffffffffffffffffffffffffff1673ffffffffffffffffffffffffffffffffffffffff1681526020019081526020016000206000828254611ad99190613211565b925050819055508273ffffffffffffffffffffffffffffffffffffffff168473ffffffffffffffffffffffffffffffffffffffff167fddf252ad1be2c89b69c2b068fc378daa952ba7f163c4a11628f55a4df523b3ef84604051611b3d91906130ac565b60405180910390a3611b508484846122e9565b50505050565b600073ffffffffffffffffffffffffffffffffffffffff168273ffffffffffffffffffffffffffffffffffffffff161415611bc6576040517f08c379a0000000000000000000000000000000000000000000000000000000008152600401611bbd9061308c565b60405180910390fd5b611bd2600083836122e4565b8060026000828254611be49190613211565b92505081905550806000808473ffffffffffffffffffffffffffffffffffffffff1673ffffffffffffffffffffffffffffffffffffffff1681526020019081526020016000206000828254611c399190613211565b925050819055508173ffffffffffffffffffffffffffffffffffffffff16600073ffffffffffffffffffffffffffffffffffffffff167fddf252ad1be2c89b69c2b068fc378daa952ba7f163c4a11628f55a4df523b3ef83604051611c9e91906130ac565b60405180910390a3611cb2600083836122e9565b5050565b6000600560009054906101000a900473ffffffffffffffffffffffffffffffffffffffff16905081600560006101000a81548173ffffffffffffffffffffffffffffffffffffffff021916908373ffffffffffffffffffffffffffffffffffffffff1602179055508173ffffffffffffffffffffffffffffffffffffffff168173ffffffffffffffffffffffffffffffffffffffff167f8be0079c531659141344cd1fd0a4f28419497f9722a3daafe3b4186f6b6457e060405160405180910390a35050565b6000611d866124e2565b6000600760009054906101000a900460ff1660ff168460ff161115611de0576040517f08c379a0000000000000000000000000000000000000000000000000000000008152600401611dd790612f8c565b60405180910390fd5b6000600860008873ffffffffffffffffffffffffffffffffffffffff1673ffffffffffffffffffffffffffffffffffffffff16815260200190815260200160002090506000818054905011611e6a576040517f08c379a0000000000000000000000000000000000000000000000000000000008152600401611e6190612f6c565b60405180910390fd5b611e726124e2565b600080600090505b8380549050811015612095576000848281548110611ec1577f4e487b7100000000000000000000000000000000000000000000000000000000600052603260045260246000fd5b90600052602060002090600502016040518060c001604052908160008201548152602001600182015481526020016002820160009054906101000a900473ffffffffffffffffffffffffffffffffffffffff1673ffffffffffffffffffffffffffffffffffffffff1673ffffffffffffffffffffffffffffffffffffffff1681526020016002820160149054906101000a900460ff166004811115611f8f577f4e487b7100000000000000000000000000000000000000000000000000000000600052602160045260246000fd5b6004811115611fc7577f4e487b7100000000000000000000000000000000000000000000000000000000600052602160045260246000fd5b8152602001600382018054611fdb90613323565b80601f016020809104026020016040519081016040528092919081815260200182805461200790613323565b80156120545780601f1061202957610100808354040283529160200191612054565b820191906000526020600020905b81548152906001019060200180831161203757829003601f168201915b50505050508152602001600482015481525050905080600001518a14156120815781925080935050612095565b50808061208d90613386565b915050611e7a565b506000826000015114156120de576040517f08c379a00000000000000000000000000000000000000000000000000000000081526004016120d59061302c565b60405180910390fd5b82828295509550955050505093509350939050565b6001816000016000828254019250508190555050565b600860008473ffffffffffffffffffffffffffffffffffffffff1673ffffffffffffffffffffffffffffffffffffffff1681526020019081526020016000206040518060c0016040528061215d60066122ee565b81526020018381526020018473ffffffffffffffffffffffffffffffffffffffff168152602001600060048111156121be577f4e487b7100000000000000000000000000000000000000000000000000000000600052602160045260246000fd5b8152602001604051806020016040528060008152508152602001428152509080600181540180825580915050600190039060005260206000209060050201600090919091909150600082015181600001556020820151816001015560408201518160020160006101000a81548173ffffffffffffffffffffffffffffffffffffffff021916908373ffffffffffffffffffffffffffffffffffffffff16021790555060608201518160020160146101000a81548160ff021916908360048111156122b1577f4e487b7100000000000000000000000000000000000000000000000000000000600052602160045260246000fd5b021790555060808201518160030190805190602001906122d29291906122fc565b5060a082015181600401555050505050565b505050565b505050565b600081600001549050919050565b82805461230890613323565b90600052602060002090601f01602090048101928261232a5760008555612371565b82601f1061234357805160ff1916838001178555612371565b82800160010185558215612371579182015b82811115612370578251825591602001919060010190612355565b5b50905061237e9190612566565b5090565b8280548282559060005260206000209060050281019282156124d15760005260206000209160050282015b828111156124d057828260008201548160000155600182015481600101556002820160009054906101000a900473ffffffffffffffffffffffffffffffffffffffff168160020160006101000a81548173ffffffffffffffffffffffffffffffffffffffff021916908373ffffffffffffffffffffffffffffffffffffffff1602179055506002820160149054906101000a900460ff168160020160146101000a81548160ff02191690836004811115612490577f4e487b7100000000000000000000000000000000000000000000000000000000600052602160045260246000fd5b021790555060038201816003019080546124a990613323565b6124b4929190612583565b50600482015481600401555050916005019190600501906123ad565b5b5090506124de9190612610565b5090565b6040518060c001604052806000815260200160008152602001600073ffffffffffffffffffffffffffffffffffffffff16815260200160006004811115612552577f4e487b7100000000000000000000000000000000000000000000000000000000600052602160045260246000fd5b815260200160608152602001600081525090565b5b8082111561257f576000816000905550600101612567565b5090565b82805461258f90613323565b90600052602060002090601f0160209004810192826125b157600085556125ff565b82601f106125c257805485556125ff565b828001600101855582156125ff57600052602060002091601f016020900482015b828111156125fe5782548255916001019190600101906125e3565b5b50905061260c9190612566565b5090565b5b808211156126865760008082016000905560018201600090556002820160006101000a81549073ffffffffffffffffffffffffffffffffffffffff02191690556002820160146101000a81549060ff0219169055600382016000612675919061268a565b600482016000905550600501612611565b5090565b50805461269690613323565b6000825580601f106126a857506126c7565b601f0160209004906000526020600020908101906126c69190612566565b5b50565b60006126dd6126d88461316f565b61314a565b9050828152602081018484840111156126f557600080fd5b6127008482856132e1565b509392505050565b6000813590506127178161393c565b92915050565b600082601f83011261272e57600080fd5b813561273e8482602086016126ca565b91505092915050565b60008135905061275681613953565b92915050565b60008135905061276b8161396a565b92915050565b60006020828403121561278357600080fd5b600061279184828501612708565b91505092915050565b600080604083850312156127ad57600080fd5b60006127bb85828601612708565b92505060206127cc85828601612708565b9150509250929050565b6000806000606084860312156127eb57600080fd5b60006127f986828701612708565b935050602061280a86828701612708565b925050604061281b86828701612747565b9150509250925092565b6000806040838503121561283857600080fd5b600061284685828601612708565b925050602061285785828601612747565b9150509250929050565b60008060006060848603121561287657600080fd5b600061288486828701612708565b935050602061289586828701612747565b92505060406128a68682870161275c565b9150509250925092565b6000602082840312156128c257600080fd5b60006128d084828501612747565b91505092915050565b6000806000606084860312156128ee57600080fd5b60006128fc86828701612747565b935050602061290d8682870161275c565b925050604084013567ffffffffffffffff81111561292a57600080fd5b6129368682870161271d565b9150509250925092565b600061294c8383612d21565b905092915050565b61295d81613267565b82525050565b61296c81613267565b82525050565b61298361297e82613267565b6133cf565b82525050565b6000612994826131b0565b61299e81856131d3565b9350836020820285016129b0856131a0565b8060005b858110156129ec57848403895281516129cd8582612940565b94506129d8836131c6565b925060208a019950506001810190506129b4565b50829750879550505050505092915050565b612a0781613279565b82525050565b612a16816132cf565b82525050565b612a25816132cf565b82525050565b6000612a36826131bb565b612a4081856131e4565b9350612a508185602086016132f0565b612a59816134af565b840191505092915050565b6000612a6f826131bb565b612a7981856131f5565b9350612a898185602086016132f0565b612a92816134af565b840191505092915050565b6000612aa8826131bb565b612ab28185613206565b9350612ac28185602086016132f0565b80840191505092915050565b6000612adb6023836131f5565b9150612ae6826134cd565b604082019050919050565b6000612afe6026836131f5565b9150612b098261351c565b604082019050919050565b6000612b216022836131f5565b9150612b2c8261356b565b604082019050919050565b6000612b446026836131f5565b9150612b4f826135ba565b604082019050919050565b6000612b67600283613206565b9150612b7282613609565b600282019050919050565b6000612b8a602f836131f5565b9150612b9582613632565b604082019050919050565b6000612bad602d836131f5565b9150612bb882613681565b604082019050919050565b6000612bd06028836131f5565b9150612bdb826136d0565b604082019050919050565b6000612bf36020836131f5565b9150612bfe8261371f565b602082019050919050565b6000612c16602a836131f5565b9150612c2182613748565b604082019050919050565b6000612c396025836131f5565b9150612c4482613797565b604082019050919050565b6000612c5c601e836131f5565b9150612c67826137e6565b602082019050919050565b6000612c7f6024836131f5565b9150612c8a8261380f565b604082019050919050565b6000612ca2600b83613206565b9150612cad8261385e565b600b82019050919050565b6000612cc5600d83613206565b9150612cd082613887565b600d82019050919050565b6000612ce86025836131f5565b9150612cf3826138b0565b604082019050919050565b6000612d0b601f836131f5565b9150612d16826138ff565b602082019050919050565b600060c083016000830151612d396000860182612daa565b506020830151612d4c6020860182612daa565b506040830151612d5f6040860182612954565b506060830151612d726060860182612a0d565b5060808301518482036080860152612d8a8282612a2b565b91505060a0830151612d9f60a0860182612daa565b508091505092915050565b612db3816132b8565b82525050565b612dc2816132b8565b82525050565b612dd1816132c2565b82525050565b6000612de38284612972565b60148201915081905092915050565b6000612dfe8285612a9d565b9150612e0982612b5a565b9150612e158284612a9d565b91508190509392505050565b6000612e2d8285612a9d565b9150612e3882612cb8565b9150612e448284612a9d565b91508190509392505050565b6000612e5b82612c95565b9150612e678284612a9d565b915081905092915050565b6000602082019050612e876000830184612963565b92915050565b60006020820190508181036000830152612ea78184612989565b905092915050565b6000602082019050612ec460008301846129fe565b92915050565b60006020820190508181036000830152612ee48184612a64565b905092915050565b60006020820190508181036000830152612f0581612ace565b9050919050565b60006020820190508181036000830152612f2581612af1565b9050919050565b60006020820190508181036000830152612f4581612b14565b9050919050565b60006020820190508181036000830152612f6581612b37565b9050919050565b60006020820190508181036000830152612f8581612b7d565b9050919050565b60006020820190508181036000830152612fa581612ba0565b9050919050565b60006020820190508181036000830152612fc581612bc3565b9050919050565b60006020820190508181036000830152612fe581612be6565b9050919050565b6000602082019050818103600083015261300581612c09565b9050919050565b6000602082019050818103600083015261302581612c2c565b9050919050565b6000602082019050818103600083015261304581612c4f565b9050919050565b6000602082019050818103600083015261306581612c72565b9050919050565b6000602082019050818103600083015261308581612cdb565b9050919050565b600060208201905081810360008301526130a581612cfe565b9050919050565b60006020820190506130c16000830184612db9565b92915050565b600060c0820190506130dc6000830189612db9565b6130e96020830188612db9565b6130f66040830187612963565b6131036060830186612a1c565b81810360808301526131158185612a64565b905061312460a0830184612db9565b979650505050505050565b60006020820190506131446000830184612dc8565b92915050565b6000613154613165565b90506131608282613355565b919050565b6000604051905090565b600067ffffffffffffffff82111561318a57613189613480565b5b613193826134af565b9050602081019050919050565b6000819050602082019050919050565b600081519050919050565b600081519050919050565b6000602082019050919050565b600082825260208201905092915050565b600082825260208201905092915050565b600082825260208201905092915050565b600081905092915050565b600061321c826132b8565b9150613227836132b8565b9250827fffffffffffffffffffffffffffffffffffffffffffffffffffffffffffffffff0382111561325c5761325b6133f3565b5b828201905092915050565b600061327282613298565b9050919050565b60008115159050919050565b600081905061329382613928565b919050565b600073ffffffffffffffffffffffffffffffffffffffff82169050919050565b6000819050919050565b600060ff82169050919050565b60006132da82613285565b9050919050565b82818337600083830152505050565b60005b8381101561330e5780820151818401526020810190506132f3565b8381111561331d576000848401525b50505050565b6000600282049050600182168061333b57607f821691505b6020821081141561334f5761334e613451565b5b50919050565b61335e826134af565b810181811067ffffffffffffffff8211171561337d5761337c613480565b5b80604052505050565b6000613391826132b8565b91507fffffffffffffffffffffffffffffffffffffffffffffffffffffffffffffffff8214156133c4576133c36133f3565b5b600182019050919050565b60006133da826133e1565b9050919050565b60006133ec826134c0565b9050919050565b7f4e487b7100000000000000000000000000000000000000000000000000000000600052601160045260246000fd5b7f4e487b7100000000000000000000000000000000000000000000000000000000600052602160045260246000fd5b7f4e487b7100000000000000000000000000000000000000000000000000000000600052602260045260246000fd5b7f4e487b7100000000000000000000000000000000000000000000000000000000600052604160045260246000fd5b6000601f19601f8301169050919050565b60008160601b9050919050565b7f45524332303a207472616e7366657220746f20746865207a65726f206164647260008201527f6573730000000000000000000000000000000000000000000000000000000000602082015250565b7f4f776e61626c653a206e6577206f776e657220697320746865207a65726f206160008201527f6464726573730000000000000000000000000000000000000000000000000000602082015250565b7f45524332303a20617070726f766520746f20746865207a65726f20616464726560008201527f7373000000000000000000000000000000000000000000000000000000000000602082015250565b7f45524332303a207472616e7366657220616d6f756e742065786365656473206260008201527f616c616e63650000000000000000000000000000000000000000000000000000602082015250565b7f3b20000000000000000000000000000000000000000000000000000000000000600082015250565b7f566f6c63616e6f436f696e3a204e6f207061796d656e747320666f756e64206660008201527f6f72207468697320616464726573730000000000000000000000000000000000602082015250565b7f566f6c63616e6f436f696e3a205061796d656e7454797065206973206e6f742060008201527f612076616c69642076616c756500000000000000000000000000000000000000602082015250565b7f45524332303a207472616e7366657220616d6f756e742065786365656473206160008201527f6c6c6f77616e6365000000000000000000000000000000000000000000000000602082015250565b7f4f776e61626c653a2063616c6c6572206973206e6f7420746865206f776e6572600082015250565b7f566f6c63616e6f436f696e3a20596f7520617265206e6f74207468652061646d60008201527f696e6973747261746f7200000000000000000000000000000000000000000000602082015250565b7f45524332303a207472616e736665722066726f6d20746865207a65726f20616460008201527f6472657373000000000000000000000000000000000000000000000000000000602082015250565b7f566f6c63616e6f436f696e3a205061796d656e74206e6f7420666f756e640000600082015250565b7f45524332303a20617070726f76652066726f6d20746865207a65726f2061646460008201527f7265737300000000000000000000000000000000000000000000000000000000602082015250565b7f7570646174656420627920000000000000000000000000000000000000000000600082015250565b7f3b20757064617465642062792000000000000000000000000000000000000000600082015250565b7f45524332303a2064656372656173656420616c6c6f77616e63652062656c6f7760008201527f207a65726f000000000000000000000000000000000000000000000000000000602082015250565b7f45524332303a206d696e7420746f20746865207a65726f206164647265737300600082015250565b6005811061393957613938613422565b5b50565b61394581613267565b811461395057600080fd5b50565b61395c816132b8565b811461396757600080fd5b50565b613973816132c2565b811461397e57600080fd5b5056fea264697066735822122082880af998321a4af89c561ee4d41269a3b11a8d4b4e97a2b500c91fd80f314e64736f6c63430008040033",
  "linkReferences": {},
  "deployedLinkReferences": {}
}